{
  "contractName": "MAI",
  "abi": [
    {
      "inputs": [],
      "stateMutability": "payable",
      "type": "constructor",
      "payable": true
    },
    {
      "anonymous": false,
      "inputs": [
        {
          "indexed": false,
          "internalType": "address",
          "name": "asset",
          "type": "address"
        },
        {
          "indexed": false,
          "internalType": "address",
          "name": "liquidityProvider",
          "type": "address"
        },
        {
          "indexed": false,
          "internalType": "uint256",
          "name": "amountMAI",
          "type": "uint256"
        },
        {
          "indexed": false,
          "internalType": "uint256",
          "name": "amountAsset",
          "type": "uint256"
        },
        {
          "indexed": false,
          "internalType": "uint256",
          "name": "unitsIssued",
          "type": "uint256"
        }
      ],
      "name": "AddLiquidity",
      "type": "event"
    },
    {
      "anonymous": false,
      "inputs": [
        {
          "indexed": false,
          "internalType": "address",
          "name": "assetAnchor",
          "type": "address"
        },
        {
          "indexed": false,
          "internalType": "uint256",
          "name": "delta",
          "type": "uint256"
        },
        {
          "indexed": false,
          "internalType": "uint256",
          "name": "assetValue",
          "type": "uint256"
        },
        {
          "indexed": false,
          "internalType": "address",
          "name": "recipient",
          "type": "address"
        }
      ],
      "name": "AnchorRemoved",
      "type": "event"
    },
    {
      "anonymous": false,
      "inputs": [
        {
          "indexed": true,
          "internalType": "address",
          "name": "owner",
          "type": "address"
        },
        {
          "indexed": true,
          "internalType": "address",
          "name": "spender",
          "type": "address"
        },
        {
          "indexed": false,
          "internalType": "uint256",
          "name": "amount",
          "type": "uint256"
        }
      ],
      "name": "Approval",
      "type": "event"
    },
    {
      "anonymous": false,
      "inputs": [
        {
          "indexed": false,
          "internalType": "uint256",
          "name": "CDP",
          "type": "uint256"
        },
        {
          "indexed": false,
          "internalType": "uint256",
          "name": "time",
          "type": "uint256"
        },
        {
          "indexed": false,
          "internalType": "address",
          "name": "owner",
          "type": "address"
        },
        {
          "indexed": false,
          "internalType": "uint256",
          "name": "debtPaid",
          "type": "uint256"
        },
        {
          "indexed": false,
          "internalType": "uint256",
          "name": "etherReturned",
          "type": "uint256"
        }
      ],
      "name": "CloseCDP",
      "type": "event"
    },
    {
      "anonymous": false,
      "inputs": [
        {
          "indexed": false,
          "internalType": "uint256",
          "name": "CDP",
          "type": "uint256"
        },
        {
          "indexed": false,
          "internalType": "uint256",
          "name": "time",
          "type": "uint256"
        },
        {
          "indexed": false,
          "internalType": "address",
          "name": "liquidator",
          "type": "address"
        },
        {
          "indexed": false,
          "internalType": "uint256",
          "name": "liquidation",
          "type": "uint256"
        },
        {
          "indexed": false,
          "internalType": "uint256",
          "name": "etherSold",
          "type": "uint256"
        },
        {
          "indexed": false,
          "internalType": "uint256",
          "name": "maiBought",
          "type": "uint256"
        },
        {
          "indexed": false,
          "internalType": "uint256",
          "name": "debtDeleted",
          "type": "uint256"
        },
        {
          "indexed": false,
          "internalType": "uint256",
          "name": "feeClaimed",
          "type": "uint256"
        }
      ],
      "name": "LiquidateCDP",
      "type": "event"
    },
    {
      "anonymous": false,
      "inputs": [
        {
          "indexed": false,
          "internalType": "uint256",
          "name": "CDP",
          "type": "uint256"
        },
        {
          "indexed": false,
          "internalType": "uint256",
          "name": "time",
          "type": "uint256"
        },
        {
          "indexed": false,
          "internalType": "address",
          "name": "owner",
          "type": "address"
        },
        {
          "indexed": false,
          "internalType": "uint256",
          "name": "debtIssued",
          "type": "uint256"
        },
        {
          "indexed": false,
          "internalType": "uint256",
          "name": "collateralHeld",
          "type": "uint256"
        },
        {
          "indexed": false,
          "internalType": "uint256",
          "name": "collateralisation",
          "type": "uint256"
        }
      ],
      "name": "NewCDP",
      "type": "event"
    },
    {
      "anonymous": false,
      "inputs": [
        {
          "indexed": false,
          "internalType": "address",
          "name": "asset",
          "type": "address"
        },
        {
          "indexed": false,
          "internalType": "address",
          "name": "liquidityProvider",
          "type": "address"
        },
        {
          "indexed": false,
          "internalType": "uint256",
          "name": "amountMAI",
          "type": "uint256"
        },
        {
          "indexed": false,
          "internalType": "uint256",
          "name": "amountAsset",
          "type": "uint256"
        },
        {
          "indexed": false,
          "internalType": "uint256",
          "name": "unitsClaimed",
          "type": "uint256"
        }
      ],
      "name": "RemoveLiquidity",
      "type": "event"
    },
    {
      "anonymous": false,
      "inputs": [
        {
          "indexed": false,
          "internalType": "address",
          "name": "assetFrom",
          "type": "address"
        },
        {
          "indexed": false,
          "internalType": "address",
          "name": "assetTo",
          "type": "address"
        },
        {
          "indexed": false,
          "internalType": "uint256",
          "name": "inputAmount",
          "type": "uint256"
        },
        {
          "indexed": false,
          "internalType": "uint256",
          "name": "maiAmount",
          "type": "uint256"
        },
        {
          "indexed": false,
          "internalType": "uint256",
          "name": "outPutAmount",
          "type": "uint256"
        },
        {
          "indexed": false,
          "internalType": "address",
          "name": "recipient",
          "type": "address"
        }
      ],
      "name": "Swapped",
      "type": "event"
    },
    {
      "anonymous": false,
      "inputs": [
        {
          "indexed": true,
          "internalType": "address",
          "name": "from",
          "type": "address"
        },
        {
          "indexed": true,
          "internalType": "address",
          "name": "to",
          "type": "address"
        },
        {
          "indexed": false,
          "internalType": "uint256",
          "name": "amount",
          "type": "uint256"
        }
      ],
      "name": "Transfer",
      "type": "event"
    },
    {
      "anonymous": false,
      "inputs": [
        {
          "indexed": false,
          "internalType": "uint256",
          "name": "CDP",
          "type": "uint256"
        },
        {
          "indexed": false,
          "internalType": "uint256",
          "name": "time",
          "type": "uint256"
        },
        {
          "indexed": false,
          "internalType": "address",
          "name": "owner",
          "type": "address"
        },
        {
          "indexed": false,
          "internalType": "uint256",
          "name": "debtAdded",
          "type": "uint256"
        },
        {
          "indexed": false,
          "internalType": "uint256",
          "name": "collateralAdded",
          "type": "uint256"
        },
        {
          "indexed": false,
          "internalType": "uint256",
          "name": "collateralisation",
          "type": "uint256"
        }
      ],
      "name": "UpdateCDP",
      "type": "event"
    },
    {
      "inputs": [],
      "name": "_1",
      "outputs": [
        {
          "internalType": "uint256",
          "name": "",
          "type": "uint256"
        }
      ],
      "stateMutability": "view",
      "type": "function",
      "constant": true
    },
    {
      "inputs": [
        {
          "internalType": "address",
          "name": "",
          "type": "address"
        },
        {
          "internalType": "address",
          "name": "",
          "type": "address"
        }
      ],
      "name": "allowance",
      "outputs": [
        {
          "internalType": "uint256",
          "name": "",
          "type": "uint256"
        }
      ],
      "stateMutability": "view",
      "type": "function",
      "constant": true
    },
    {
      "inputs": [
        {
          "internalType": "uint256",
          "name": "",
          "type": "uint256"
        }
      ],
      "name": "arrayAnchor",
      "outputs": [
        {
          "internalType": "address",
          "name": "",
          "type": "address"
        }
      ],
      "stateMutability": "view",
      "type": "function",
      "constant": true
    },
    {
      "inputs": [
        {
          "internalType": "address",
          "name": "",
          "type": "address"
        }
      ],
      "name": "balanceOf",
      "outputs": [
        {
          "internalType": "uint256",
          "name": "",
          "type": "uint256"
        }
      ],
      "stateMutability": "view",
      "type": "function",
      "constant": true
    },
    {
      "inputs": [],
      "name": "countOfCDPs",
      "outputs": [
        {
          "internalType": "uint256",
          "name": "",
          "type": "uint256"
        }
      ],
      "stateMutability": "view",
      "type": "function",
      "constant": true
    },
    {
      "inputs": [],
      "name": "decimals",
      "outputs": [
        {
          "internalType": "uint256",
          "name": "",
          "type": "uint256"
        }
      ],
      "stateMutability": "view",
      "type": "function",
      "constant": true
    },
    {
      "inputs": [],
      "name": "defaultCollateralisation",
      "outputs": [
        {
          "internalType": "uint256",
          "name": "",
          "type": "uint256"
        }
      ],
      "stateMutability": "view",
      "type": "function",
      "constant": true
    },
    {
      "inputs": [],
      "name": "etherPrice",
      "outputs": [
        {
          "internalType": "uint256",
          "name": "",
          "type": "uint256"
        }
      ],
      "stateMutability": "view",
      "type": "function",
      "constant": true
    },
    {
      "inputs": [
        {
          "internalType": "uint256",
          "name": "",
          "type": "uint256"
        }
      ],
      "name": "exchanges",
      "outputs": [
        {
          "internalType": "address",
          "name": "",
          "type": "address"
        }
      ],
      "stateMutability": "view",
      "type": "function",
      "constant": true
    },
    {
      "inputs": [],
      "name": "incentiveFactor",
      "outputs": [
        {
          "internalType": "uint256",
          "name": "",
          "type": "uint256"
        }
      ],
      "stateMutability": "view",
      "type": "function",
      "constant": true
    },
    {
      "inputs": [
        {
          "internalType": "address",
          "name": "",
          "type": "address"
        }
      ],
      "name": "mapAddress_MemberData",
      "outputs": [
        {
          "internalType": "uint256",
          "name": "CDP",
          "type": "uint256"
        }
      ],
      "stateMutability": "view",
      "type": "function",
      "constant": true
    },
    {
      "inputs": [
        {
          "internalType": "address",
          "name": "",
          "type": "address"
        }
      ],
      "name": "mapAsset_ExchangeData",
      "outputs": [
        {
          "internalType": "bool",
          "name": "listed",
          "type": "bool"
        },
        {
          "internalType": "bool",
          "name": "isAnchor",
          "type": "bool"
        },
        {
          "internalType": "uint256",
          "name": "balanceMAI",
          "type": "uint256"
        },
        {
          "internalType": "uint256",
          "name": "balanceAsset",
          "type": "uint256"
        },
        {
          "internalType": "uint256",
          "name": "poolUnits",
          "type": "uint256"
        }
      ],
      "stateMutability": "view",
      "type": "function",
      "constant": true
    },
    {
      "inputs": [
        {
          "internalType": "uint256",
          "name": "",
          "type": "uint256"
        }
      ],
      "name": "mapCDP_Data",
      "outputs": [
        {
          "internalType": "uint256",
          "name": "collateral",
          "type": "uint256"
        },
        {
          "internalType": "uint256",
          "name": "debt",
          "type": "uint256"
        },
        {
          "internalType": "address payable",
          "name": "owner",
          "type": "address"
        }
      ],
      "stateMutability": "view",
      "type": "function",
      "constant": true
    },
    {
      "inputs": [],
      "name": "medianMAIValue",
      "outputs": [
        {
          "internalType": "uint256",
          "name": "",
          "type": "uint256"
        }
      ],
      "stateMutability": "view",
      "type": "function",
      "constant": true
    },
    {
      "inputs": [
        {
          "internalType": "uint256",
          "name": "",
          "type": "uint256"
        }
      ],
      "name": "members",
      "outputs": [
        {
          "internalType": "address",
          "name": "",
          "type": "address"
        }
      ],
      "stateMutability": "view",
      "type": "function",
      "constant": true
    },
    {
      "inputs": [],
      "name": "minCollaterisation",
      "outputs": [
        {
          "internalType": "uint256",
          "name": "",
          "type": "uint256"
        }
      ],
      "stateMutability": "view",
      "type": "function",
      "constant": true
    },
    {
      "inputs": [],
      "name": "mintedMAI",
      "outputs": [
        {
          "internalType": "uint256",
          "name": "",
          "type": "uint256"
        }
      ],
      "stateMutability": "view",
      "type": "function",
      "constant": true
    },
    {
      "inputs": [],
      "name": "name",
      "outputs": [
        {
          "internalType": "string",
          "name": "",
          "type": "string"
        }
      ],
      "stateMutability": "view",
      "type": "function",
      "constant": true
    },
    {
      "inputs": [],
      "name": "pooledMAI",
      "outputs": [
        {
          "internalType": "uint256",
          "name": "",
          "type": "uint256"
        }
      ],
      "stateMutability": "view",
      "type": "function",
      "constant": true
    },
    {
      "inputs": [],
      "name": "symbol",
      "outputs": [
        {
          "internalType": "string",
          "name": "",
          "type": "string"
        }
      ],
      "stateMutability": "view",
      "type": "function",
      "constant": true
    },
    {
      "inputs": [],
      "name": "totalSupply",
      "outputs": [
        {
          "internalType": "uint256",
          "name": "",
          "type": "uint256"
        }
      ],
      "stateMutability": "view",
      "type": "function",
      "constant": true
    },
    {
      "stateMutability": "payable",
      "type": "receive",
      "payable": true
    },
    {
      "inputs": [
        {
          "internalType": "address",
          "name": "to",
          "type": "address"
        },
        {
          "internalType": "uint256",
          "name": "amount",
          "type": "uint256"
        }
      ],
      "name": "transfer",
      "outputs": [
        {
          "internalType": "bool",
          "name": "success",
          "type": "bool"
        }
      ],
      "stateMutability": "nonpayable",
      "type": "function"
    },
    {
      "inputs": [
        {
          "internalType": "address",
          "name": "spender",
          "type": "address"
        },
        {
          "internalType": "uint256",
          "name": "amount",
          "type": "uint256"
        }
      ],
      "name": "approve",
      "outputs": [
        {
          "internalType": "bool",
          "name": "success",
          "type": "bool"
        }
      ],
      "stateMutability": "nonpayable",
      "type": "function"
    },
    {
      "inputs": [
        {
          "internalType": "address",
          "name": "from",
          "type": "address"
        },
        {
          "internalType": "address",
          "name": "to",
          "type": "address"
        },
        {
          "internalType": "uint256",
          "name": "amount",
          "type": "uint256"
        }
      ],
      "name": "transferFrom",
      "outputs": [
        {
          "internalType": "bool",
          "name": "success",
          "type": "bool"
        }
      ],
      "stateMutability": "nonpayable",
      "type": "function"
    },
    {
      "inputs": [
        {
          "internalType": "address",
          "name": "asset",
          "type": "address"
        },
        {
          "internalType": "address",
          "name": "staker",
          "type": "address"
        }
      ],
      "name": "calcStakerUnits",
      "outputs": [
        {
          "internalType": "uint256",
          "name": "stakerUnits",
          "type": "uint256"
        }
      ],
      "stateMutability": "view",
      "type": "function",
      "constant": true
    },
    {
      "inputs": [
        {
          "internalType": "address",
          "name": "asset",
          "type": "address"
        },
        {
          "internalType": "uint256",
          "name": "index",
          "type": "uint256"
        }
      ],
      "name": "calcStakerAddress",
      "outputs": [
        {
          "internalType": "address",
          "name": "staker",
          "type": "address"
        }
      ],
      "stateMutability": "view",
      "type": "function",
      "constant": true
    },
    {
      "inputs": [
        {
          "internalType": "address",
          "name": "asset",
          "type": "address"
        },
        {
          "internalType": "uint256",
          "name": "amountAsset",
          "type": "uint256"
        },
        {
          "internalType": "uint256",
          "name": "amountMAI",
          "type": "uint256"
        }
      ],
      "name": "addExchange",
      "outputs": [
        {
          "internalType": "bool",
          "name": "success",
          "type": "bool"
        }
      ],
      "stateMutability": "payable",
      "type": "function",
      "payable": true
    },
    {
      "inputs": [
        {
          "internalType": "uint256",
          "name": "collateralisation",
          "type": "uint256"
        }
      ],
      "name": "openCDP",
      "outputs": [
        {
          "internalType": "bool",
          "name": "success",
          "type": "bool"
        }
      ],
      "stateMutability": "payable",
      "type": "function",
      "payable": true
    },
    {
      "inputs": [],
      "name": "addCollateralToCDP",
      "outputs": [
        {
          "internalType": "bool",
          "name": "success",
          "type": "bool"
        }
      ],
      "stateMutability": "payable",
      "type": "function",
      "payable": true
    },
    {
      "inputs": [
        {
          "internalType": "uint256",
          "name": "collateralisation",
          "type": "uint256"
        }
      ],
      "name": "remintMAIFromCDP",
      "outputs": [
        {
          "internalType": "bool",
          "name": "success",
          "type": "bool"
        }
      ],
      "stateMutability": "payable",
      "type": "function",
      "payable": true
    },
    {
      "inputs": [
        {
          "internalType": "uint256",
          "name": "_liquidation",
          "type": "uint256"
        }
      ],
      "name": "closeCDP",
      "outputs": [
        {
          "internalType": "bool",
          "name": "success",
          "type": "bool"
        }
      ],
      "stateMutability": "nonpayable",
      "type": "function"
    },
    {
      "inputs": [
        {
          "internalType": "uint256",
          "name": "CDP",
          "type": "uint256"
        },
        {
          "internalType": "uint256",
          "name": "liquidation",
          "type": "uint256"
        }
      ],
      "name": "liquidateCDP",
      "outputs": [
        {
          "internalType": "bool",
          "name": "success",
          "type": "bool"
        }
      ],
      "stateMutability": "nonpayable",
      "type": "function"
    },
    {
      "inputs": [
        {
          "internalType": "uint256",
          "name": "amountMAI",
          "type": "uint256"
        }
      ],
      "name": "addLiquidityToEtherPool",
      "outputs": [
        {
          "internalType": "bool",
          "name": "success",
          "type": "bool"
        }
      ],
      "stateMutability": "payable",
      "type": "function",
      "payable": true
    },
    {
      "inputs": [
        {
          "internalType": "address",
          "name": "asset",
          "type": "address"
        },
        {
          "internalType": "uint256",
          "name": "amountAsset",
          "type": "uint256"
        },
        {
          "internalType": "uint256",
          "name": "amountMAI",
          "type": "uint256"
        }
      ],
      "name": "addLiquidityToAssetPool",
      "outputs": [
        {
          "internalType": "bool",
          "name": "success",
          "type": "bool"
        }
      ],
      "stateMutability": "nonpayable",
      "type": "function"
    },
    {
      "inputs": [
        {
          "internalType": "address",
          "name": "asset",
          "type": "address"
        },
        {
          "internalType": "uint256",
          "name": "bp",
          "type": "uint256"
        }
      ],
      "name": "removeLiquidityPool",
      "outputs": [
        {
          "internalType": "bool",
          "name": "success",
          "type": "bool"
        }
      ],
      "stateMutability": "nonpayable",
      "type": "function"
    },
    {
      "inputs": [
        {
          "internalType": "address",
          "name": "assetFrom",
          "type": "address"
        },
        {
          "internalType": "address",
          "name": "assetTo",
          "type": "address"
        },
        {
          "internalType": "uint256",
          "name": "inputAmount",
          "type": "uint256"
        }
      ],
      "name": "swapTokenToToken",
      "outputs": [
        {
          "internalType": "bool",
          "name": "success",
          "type": "bool"
        }
      ],
      "stateMutability": "payable",
      "type": "function",
      "payable": true
    },
    {
      "inputs": [
        {
          "internalType": "address",
          "name": "asset",
          "type": "address"
        },
        {
          "internalType": "uint256",
          "name": "amountAsset",
          "type": "uint256"
        },
        {
          "internalType": "uint256",
          "name": "amountMAI",
          "type": "uint256"
        }
      ],
      "name": "addAnchor",
      "outputs": [
        {
          "internalType": "bool",
          "name": "success",
          "type": "bool"
        }
      ],
      "stateMutability": "payable",
      "type": "function",
      "payable": true
    },
    {
      "inputs": [],
      "name": "updatePrice",
      "outputs": [],
      "stateMutability": "nonpayable",
      "type": "function"
    },
    {
      "inputs": [
        {
          "internalType": "address",
          "name": "asset",
          "type": "address"
        }
      ],
      "name": "calcValueInMAI",
      "outputs": [
        {
          "internalType": "uint256",
          "name": "price",
          "type": "uint256"
        }
      ],
      "stateMutability": "view",
      "type": "function",
      "constant": true
    },
    {
      "inputs": [
        {
          "internalType": "address",
          "name": "asset",
          "type": "address"
        }
      ],
      "name": "calcValueInAsset",
      "outputs": [
        {
          "internalType": "uint256",
          "name": "price",
          "type": "uint256"
        }
      ],
      "stateMutability": "view",
      "type": "function",
      "constant": true
    },
    {
      "inputs": [
        {
          "internalType": "uint256",
          "name": "amount",
          "type": "uint256"
        }
      ],
      "name": "calcEtherPriceInUSD",
      "outputs": [
        {
          "internalType": "uint256",
          "name": "amountBought",
          "type": "uint256"
        }
      ],
      "stateMutability": "view",
      "type": "function",
      "constant": true
    },
    {
      "inputs": [
        {
          "internalType": "uint256",
          "name": "amount",
          "type": "uint256"
        }
      ],
      "name": "calcEtherPPinMAI",
      "outputs": [
        {
          "internalType": "uint256",
          "name": "amountBought",
          "type": "uint256"
        }
      ],
      "stateMutability": "view",
      "type": "function",
      "constant": true
    },
    {
      "inputs": [
        {
          "internalType": "uint256",
          "name": "CDP",
          "type": "uint256"
        }
      ],
      "name": "checkLiquidationPoint",
      "outputs": [
        {
          "internalType": "bool",
          "name": "canLiquidate",
          "type": "bool"
        }
      ],
      "stateMutability": "view",
      "type": "function",
      "constant": true
    },
    {
      "inputs": [
        {
          "internalType": "uint256",
          "name": "x",
          "type": "uint256"
        },
        {
          "internalType": "uint256",
          "name": "X",
          "type": "uint256"
        },
        {
          "internalType": "uint256",
          "name": "Y",
          "type": "uint256"
        }
      ],
      "name": "calcCLPSwap",
      "outputs": [
        {
          "internalType": "uint256",
          "name": "y",
          "type": "uint256"
        }
      ],
      "stateMutability": "pure",
      "type": "function",
      "constant": true
    },
    {
      "inputs": [
        {
          "internalType": "uint256",
          "name": "x",
          "type": "uint256"
        },
        {
          "internalType": "uint256",
          "name": "X",
          "type": "uint256"
        },
        {
          "internalType": "uint256",
          "name": "Y",
          "type": "uint256"
        }
      ],
      "name": "calcCLPFee",
      "outputs": [
        {
          "internalType": "uint256",
          "name": "y",
          "type": "uint256"
        }
      ],
      "stateMutability": "pure",
      "type": "function",
      "constant": true
    },
    {
      "inputs": [
        {
          "internalType": "uint256",
          "name": "x",
          "type": "uint256"
        },
        {
          "internalType": "uint256",
          "name": "X",
          "type": "uint256"
        },
        {
          "internalType": "uint256",
          "name": "Y",
          "type": "uint256"
        }
      ],
      "name": "calcCLPLiquidation",
      "outputs": [
        {
          "internalType": "uint256",
          "name": "y",
          "type": "uint256"
        }
      ],
      "stateMutability": "pure",
      "type": "function",
      "constant": true
    },
    {
      "inputs": [
        {
          "internalType": "uint256",
          "name": "a",
          "type": "uint256"
        },
        {
          "internalType": "uint256",
          "name": "A",
          "type": "uint256"
        },
        {
          "internalType": "uint256",
          "name": "m",
          "type": "uint256"
        },
        {
          "internalType": "uint256",
          "name": "M",
          "type": "uint256"
        }
      ],
      "name": "calcStakeUnits",
      "outputs": [
        {
          "internalType": "uint256",
          "name": "units",
          "type": "uint256"
        }
      ],
      "stateMutability": "pure",
      "type": "function",
      "constant": true
    }
  ],
  "bytecode": "0x60c0604052600960808190526813505248105cdcd95d60ba1b60a09081526200002c9160009190620005ac565b50604080518082019091526003808252624d414960e81b60209092019182526200005991600191620005ac565b506012600255670de0b6b3a76400006004819055600a600f556005805460ff1916600117905560966009556065600855600b5560c860008160033404029050620000af600282026001600160e01b036200026816565b50600080805260146020908152600334047f4f26c3876aa9f4b92579780beea1161a61f87ebf1ec6ee865b299e447ecba99e557f4f26c3876aa9f4b92579780beea1161a61f87ebf1ec6ee865b299e447ecba99d8390556009546200013b916200012790859060649062000301811b6200246417901c565b6200036860201b620024c41790919060201c565b600060138190557f6e0956cda88cad152e89927e53611735b61a5c762d1428573c6931b0a5efcb02819055600334600202047f7e7fa33969761a458e04f477e039a608702b4f924981d6653935a8319a08ad7b557f7e7fa33969761a458e04f477e039a608702b4f924981d6653935a8319a08ad7c8290557f7e7fa33969761a458e04f477e039a608702b4f924981d6653935a8319a08ad7d80546001600160a01b031990811690915560146020527f4f26c3876aa9f4b92579780beea1161a61f87ebf1ec6ee865b299e447ecba99c805460ff1916600190811790915560158054918201815583527f55f448fdea98c4d29eb340757ef0a66cd03dbb9538908a6a81d96026b71ec47501805490911690559091506200025d303385620003b2565b505050505062000651565b60008082116200027757600080fd5b6200029382600354620004e260201b62002a5f1790919060201c565b60035530600090815260066020908152604090912054620002bf91849062002a5f620004e2821b17901c565b306000818152600660209081526040808320949094558351868152935192939192600080516020620037d38339815191529281900390910190a3506001919050565b600082620003125750600062000362565b828202828482816200032057fe5b04146200035f5760405162461bcd60e51b8152600401808060200182810382526021815260200180620037b26021913960400191505060405180910390fd5b90505b92915050565b60006200035f83836040518060400160405280601a81526020017f536166654d6174683a206469766973696f6e206279207a65726f000000000000815250620004f260201b60201c565b6001600160a01b03831660009081526006602052604081205482111562000420576040805162461bcd60e51b815260206004820181905260248201527f53656e646572206d757374206861766520656e6f75676820746f207370656e64604482015290519081900360640190fd5b6001600160a01b0384166000908152600660209081526040909120546200045291849062002a4d62000599821b17901c565b6001600160a01b03808616600090815260066020908152604080832094909455918616815291909120546200049291849062002a5f620004e2821b17901c565b6001600160a01b038085166000818152600660209081526040918290209490945580518681529051919392881692600080516020620037d383398151915292918290030190a35060019392505050565b6000828201838110156200035f57fe5b60008183620005825760405162461bcd60e51b81526004018080602001828103825283818151815260200191508051906020019080838360005b83811015620005465781810151838201526020016200052c565b50505050905090810190601f168015620005745780820380516001836020036101000a031916815260200191505b509250505060405180910390fd5b5060008385816200058f57fe5b0495945050505050565b600082821115620005a657fe5b50900390565b828054600181600116156101000203166002900490600052602060002090601f016020900481019282601f10620005ef57805160ff19168380011785556200061f565b828001600101855582156200061f579182015b828111156200061f57825182559160200191906001019062000602565b506200062d92915062000631565b5090565b6200064e91905b808211156200062d576000815560010162000638565b90565b61315180620006616000396000f3fe60806040526004361061028c5760003560e01c806364b23e5e1161015a578063a9059cbb116100c1578063d087874a1161007a578063d087874a14610a1a578063dd62ed3e14610a56578063e2f3273514610a91578063e3785c3b14610ae2578063e89909a214610b15578063ec2889f314610b4b576102f6565b8063a9059cbb146108d0578063ad94f8bc14610909578063c13531911461091e578063cea5376414610948578063cedd35ef146109a8578063d0152276146109e7576102f6565b806392c9db861161011357806392c9db861461080e57806395d89b41146108445780639c0ce768146108595780639c578d2e146108615780639e30795514610891578063a6b525c5146108a6576102f6565b806364b23e5e14610700578063673a7e28146107395780636bb224c31461075057806370a082311461076d578063758a8419146107a0578063802874e6146107db576102f6565b806323b872dd116101fe57806340d56e35116101b757806340d56e351461065d5780634343c701146106725780634c41ce0e146106875780635c10778d1461069c5780635daf08ca146106b957806360d562a7146106e3576102f6565b806323b872dd1461057f57806324d7f269146105c25780632839fc29146105f4578063313ce5671461061e5780633cdc4178146106335780633d252e4a14610648576102f6565b80630ce3e050116102505780630ce3e0501461046457806313712c9f1461049a5780631451a744146104d057806315ed834f146104fa57806318160ddd146105405780631e4b5ede14610555576102f6565b806301f55cfe146102fb57806306fdde0314610322578063095ea7b3146103ac5780630b25bd84146103f95780630c4a2bd814610432576102f6565b366102f657600034116102e6576040805162461bcd60e51b815260206004820152601f60248201527f4d757374206265206d6f7265207468616e203020746f206f70656e2043445000604482015290519081900360640190fd5b6102f33334600954610b60565b50005b600080fd5b34801561030757600080fd5b50610310610ce9565b60408051918252519081900360200190f35b34801561032e57600080fd5b50610337610cef565b6040805160208082528351818301528351919283929083019185019080838360005b83811015610371578181015183820152602001610359565b50505050905090810190601f16801561039e5780820380516001836020036101000a031916815260200191505b509250505060405180910390f35b3480156103b857600080fd5b506103e5600480360360408110156103cf57600080fd5b506001600160a01b038135169060200135610d7d565b604080519115158252519081900360200190f35b34801561040557600080fd5b506103e56004803603604081101561041c57600080fd5b506001600160a01b038135169060200135610d96565b6103e56004803603606081101561044857600080fd5b506001600160a01b038135169060208101359060400135610e86565b34801561047057600080fd5b506103106004803603606081101561048757600080fd5b50803590602081013590604001356110ab565b6103e5600480360360608110156104b057600080fd5b506001600160a01b0381358116916020810135909116906040013561112d565b3480156104dc57600080fd5b506103e5600480360360208110156104f357600080fd5b5035611303565b34801561050657600080fd5b506105246004803603602081101561051d57600080fd5b5035611398565b604080516001600160a01b039092168252519081900360200190f35b34801561054c57600080fd5b506103106113bf565b34801561056157600080fd5b506103e56004803603602081101561057857600080fd5b50356113c5565b34801561058b57600080fd5b506103e5600480360360608110156105a257600080fd5b506001600160a01b03813581169160208101359091169060400135611697565b6103e5600480360360608110156105d857600080fd5b506001600160a01b038135169060208101359060400135611764565b34801561060057600080fd5b506105246004803603602081101561061757600080fd5b50356118c7565b34801561062a57600080fd5b506103106118d4565b34801561063f57600080fd5b506103106118da565b34801561065457600080fd5b506103106118e0565b34801561066957600080fd5b506103106118e6565b34801561067e57600080fd5b506103106118ec565b34801561069357600080fd5b506103106118f2565b6103e5600480360360208110156106b257600080fd5b50356118f8565b3480156106c557600080fd5b50610524600480360360208110156106dc57600080fd5b503561196f565b6103e5600480360360208110156106f957600080fd5b503561197c565b34801561070c57600080fd5b506105246004803603604081101561072357600080fd5b506001600160a01b038135169060200135611b53565b34801561074557600080fd5b5061074e611b96565b005b6103e56004803603602081101561076657600080fd5b5035611c0a565b34801561077957600080fd5b506103106004803603602081101561079057600080fd5b50356001600160a01b0316611cc7565b3480156107ac57600080fd5b50610310600480360360408110156107c357600080fd5b506001600160a01b0381358116916020013516611cd9565b3480156107e757600080fd5b50610310600480360360208110156107fe57600080fd5b50356001600160a01b0316611d08565b34801561081a57600080fd5b506103106004803603606081101561083157600080fd5b5080359060208101359060400135611d1d565b34801561085057600080fd5b50610337611d33565b6103e5611d8d565b34801561086d57600080fd5b506103e56004803603604081101561088457600080fd5b5080359060200135611eed565b34801561089d57600080fd5b50610310612168565b3480156108b257600080fd5b50610310600480360360208110156108c957600080fd5b503561216e565b3480156108dc57600080fd5b506103e5600480360360408110156108f357600080fd5b506001600160a01b0381351690602001356121bc565b34801561091557600080fd5b506103106121c9565b34801561092a57600080fd5b506103106004803603602081101561094157600080fd5b50356121cf565b34801561095457600080fd5b5061097b6004803603602081101561096b57600080fd5b50356001600160a01b0316612232565b60408051951515865293151560208601528484019290925260608401526080830152519081900360a00190f35b3480156109b457600080fd5b506103e5600480360360608110156109cb57600080fd5b506001600160a01b038135169060208101359060400135612264565b3480156109f357600080fd5b5061031060048036036020811015610a0a57600080fd5b50356001600160a01b0316612300565b348015610a2657600080fd5b5061031060048036036080811015610a3d57600080fd5b508035906020810135906040810135906060013561233c565b348015610a6257600080fd5b5061031060048036036040811015610a7957600080fd5b506001600160a01b03813581169160200135166123c5565b348015610a9d57600080fd5b50610abb60048036036020811015610ab457600080fd5b50356123e2565b6040805193845260208401929092526001600160a01b031682820152519081900360600190f35b348015610aee57600080fd5b5061031060048036036020811015610b0557600080fd5b50356001600160a01b031661240c565b348015610b2157600080fd5b5061031060048036036060811015610b3857600080fd5b5080359060208101359060400135612448565b348015610b5757600080fd5b5061031061245e565b600080610b6c846121cf565b90506000610b9184610b8584606463ffffffff61246416565b9063ffffffff6124c416565b6001600160a01b0387166000908152601060205260409020600101549091508015610bd8576000818152601260205260409020805487018155600101805483019055610c30565b50601380546001908101918290556001600160a01b0388166000818152601060209081526040808320850186905585835260129091529020888155918201849055600290910180546001600160a01b03191690911790555b610c3982612506565b50610c4530888461259d565b610c805760405162461bcd60e51b815260040180806020018281038252602381526020018061306c6023913960400191505060405180910390fd5b604080518281524260208201526001600160a01b03891681830152606081018490526080810188905260a0810187905290517fa7935d2090c8af510740aa727a13c8268b4b7644c372e3407184b25713005e249181900360c00190a15060019695505050505050565b600b5481565b6000805460408051602060026001851615610100026000190190941693909304601f81018490048402820184019092528181529291830182828015610d755780601f10610d4a57610100808354040283529160200191610d75565b820191906000526020600020905b815481529060010190602001808311610d5857829003601f168201915b505050505081565b6000610d8a3384846126c9565b50600190505b92915050565b6000806000610da58585612734565b90925090506001600160a01b038516610deb57604051339082156108fc029083906000818181858888f19350505050158015610de5573d6000803e3d6000fd5b50610e67565b6040805163a9059cbb60e01b81523360048201526024810183905290516001600160a01b0387169163a9059cbb9160448083019260209291908290030181600087803b158015610e3a57600080fd5b505af1158015610e4e573d6000803e3d6000fd5b505050506040513d6020811015610e6457600080fd5b50505b610e7230338461259d565b610e7b57600080fd5b506001949350505050565b600c54600090600511610ee0576040805162461bcd60e51b815260206004820152601860248201527f6d757374206f6e6c792068617665203520616e63686f72730000000000000000604482015290519081900360640190fd5b6001600160a01b038416600090815260146020526040902054610100900460ff166110a157610f10333084611697565b610f54576040805162461bcd60e51b815260206004820152601060248201526f6d75737420636f6c6c656374206d616960801b604482015290519081900360640190fd5b604080516323b872dd60e01b81523360048201523060248201526044810185905290516001600160a01b038616916323b872dd9160648083019260209291908290030181600087803b158015610fa957600080fd5b505af1158015610fbd573d6000803e3d6000fd5b505050506040513d6020811015610fd357600080fd5b50506001600160a01b0384166000908152601460205260409020600180820184905560028201859055815461ff001960ff199091169091171661010017905561101d8484846128a3565b600c805460018181019092557fdf6966c971051c3d54ec59162606531493a51404a002842f56009d7e5cf4a8c70180546001600160a01b0387166001600160a01b031991821681179092556015805493840181556000527f55f448fdea98c4d29eb340757ef0a66cd03dbb9538908a6a81d96026b71ec47590920180549092161790555b5060019392505050565b6000806110de6110d16110c4868863ffffffff612a4d16565b859063ffffffff61246416565b869063ffffffff61246416565b905060006111116110f5878763ffffffff612a5f16565b611105888863ffffffff612a5f16565b9063ffffffff61246416565b9050611123828263ffffffff6124c416565b9695505050505050565b6000808211611174576040805162461bcd60e51b815260206004820152600e60248201526d135d5cdd0819d95d08105cdcd95d60921b604482015290519081900360640190fd5b6000806001600160a01b0386166111cd578334146111c8576040805162461bcd60e51b815260206004820152600c60248201526b0daeae6e840cecae8408aa8960a31b604482015290519081900360640190fd5b611271565b6001600160a01b0386163014156111ef576111e933308661259d565b50611271565b604080516323b872dd60e01b81523360048201523060248201526044810186905290516001600160a01b038816916323b872dd9160648083019260209291908290030181600087803b15801561124457600080fd5b505af1158015611258573d6000803e3d6000fd5b505050506040513d602081101561126e57600080fd5b50505b61127c868686612a6e565b604080516001600160a01b03808b1682528916602082015280820188905260608101849052608081018390523360a082015290519294509092507f5f159529725ffd2b46cc6592b8e5812527c7bbb61af2528492055e641628737c919081900360c00190a16112ed85838333612afd565b6112f78686612bf6565b50600195945050505050565b60008181526012602090815260408220805460019091015483805260149092527f4f26c3876aa9f4b92579780beea1161a61f87ebf1ec6ee865b299e447ecba99e547f4f26c3876aa9f4b92579780beea1161a61f87ebf1ec6ee865b299e447ecba99d54919291846113768584846110ab565b905083811015611389576001955061138e565b600095505b5050505050919050565b600c81815481106113a557fe5b6000918252602090912001546001600160a01b0316905081565b60035481565b336000908152601060205260408120600101548061141b576040805162461bcd60e51b815260206004820152600e60248201526d10d114081b5d5cdd08195e1a5cdd60921b604482015290519081900360640190fd5b6000831161145a5760405162461bcd60e51b81526004018080602001828103825260228152602001806130fa6022913960400191505060405180910390fd5b61271083111561149b5760405162461bcd60e51b815260040180806020018281038252602181526020018061308f6021913960400191505060405180910390fd5b60008181526012602052604081206001015490612710906114d26114c5838863ffffffff6124c416565b849063ffffffff6124c416565b6000858152601260205260408120549192506115046114f7858a63ffffffff6124c416565b839063ffffffff6124c416565b90506115113330856126c9565b611557576040805162461bcd60e51b8152602060048201526012602482015271135d5cdd08185c1c1c9bdd9948199a5c9cdd60721b604482015290519081900360640190fd5b611562333085611697565b6115a7576040805162461bcd60e51b81526020600482015260116024820152701b5d5cdd0818dbdb1b1958dd081919589d607a1b604482015290519081900360640190fd5b6115b083612c68565b6115f2576040805162461bcd60e51b815260206004820152600e60248201526d135d5cdd08189d5c9b881919589d60921b604482015290519081900360640190fd5b60008681526012602052604080822060018101805487900390558054849003905551339183156108fc02918491818181858888f1935050505015801561163c573d6000803e3d6000fd5b50604080518781524260208201523381830152606081018590526080810183905290517fbb34e4a8404f713f72b3aa4780f76e5cb9a5903c83d80310d8cddd5ecc03c3179181900360a00190a1506001979650505050505050565b6001600160a01b0380841660009081526007602090815260408083209386168352929052908120548211156116fd5760405162461bcd60e51b81526004018080602001828103825260298152602001806130b06029913960400191505060405180910390fd5b6001600160a01b03808516600090815260076020908152604080832093871683529290522054611733908363ffffffff612a4d16565b6001600160a01b03808616600090815260076020908152604080832093881683529290522055610e7b84848461259d565b6000611771333084611697565b6117b5576040805162461bcd60e51b815260206004820152601060248201526f6d75737420636f6c6c656374206d616960801b604482015290519081900360640190fd5b604080516323b872dd60e01b81523360048201523060248201526044810185905290516001600160a01b038616916323b872dd9160648083019260209291908290030181600087803b15801561180a57600080fd5b505af115801561181e573d6000803e3d6000fd5b505050506040513d602081101561183457600080fd5b50506001600160a01b0384166000908152601460205260409020600180820184905560028201859055815460ff19161790556118718484846128a3565b5060158054600181810183556000929092527f55f448fdea98c4d29eb340757ef0a66cd03dbb9538908a6a81d96026b71ec4750180546001600160a01b0386166001600160a01b03199091161790559392505050565b601581815481106113a557fe5b60025481565b600f5481565b60095481565b600e5481565b60135481565b60085481565b6000808211806119085750600034115b61194f576040805162461bcd60e51b815260206004820152601360248201527209aeae6e840cecae8409ac2d240dee4408ae8d606b1b604482015290519081900360640190fd5b61195a33308461259d565b50611967600034846128a3565b506001919050565b601181815481106113a557fe5b60006008548210156119d1576040805162461bcd60e51b81526020600482015260196024820152784d7573742062652067726561746572207468616e203130312560381b604482015290519081900360640190fd5b3360009081526010602052604090206001015480611a31576040805162461bcd60e51b81526020600482015260186024820152774d75737420626520616e206f776e657220616c726561647960401b604482015290519081900360640190fd5b60008181526012602052604081205490611a4a826121cf565b90506000611a636064610b85848963ffffffff61246416565b60008581526012602052604081206001015491925090611a8a90839063ffffffff612a4d16565b60008681526012602052604090206001018054820190559050611aac81612506565b50611ab830338361259d565b611af35760405162461bcd60e51b815260040180806020018281038252602381526020018061306c6023913960400191505060405180910390fd5b604080518681524260208201523381830152606081018390526000608082015260a0810189905290517f99349e3e915f5052737c40f222795c4bd5e8ee2e41e21dcb6a8aaf7c4c5736479181900360c00190a15060019695505050505050565b6001600160a01b0382166000908152601460205260408120600301805483908110611b7a57fe5b6000918252602090912001546001600160a01b03169392505050565b611b9e61302c565b60005b6005811015611bed57611bd4600c8281548110611bba57fe5b6000918252602090912001546001600160a01b0316612300565b828260058110611be057fe5b6020020152600101611ba1565b50611bf661302c565b611bff82612d1a565b60400151600b555050565b6000803411611c60576040805162461bcd60e51b815260206004820152601f60248201527f4d757374206265206d6f7265207468616e203020746f206f70656e2043445000604482015290519081900360640190fd5b600854821015611cb3576040805162461bcd60e51b81526020600482015260196024820152784d7573742062652067726561746572207468616e203130312560381b604482015290519081900360640190fd5b611cbe333484610b60565b50600192915050565b60066020526000908152604090205481565b6001600160a01b0391821660009081526014602090815260408083209390941682526005909201909152205490565b60106020526000908152604090206001015481565b6000806110de6110d1848763ffffffff61246416565b60018054604080516020600284861615610100026000190190941693909304601f81018490048402820184019092528181529291830182828015610d755780601f10610d4a57610100808354040283529160200191610d75565b6000803411611de3576040805162461bcd60e51b815260206004820152601f60248201527f4d757374206265206d6f7265207468616e203020746f206f70656e2043445000604482015290519081900360640190fd5b3360009081526010602052604090206001015480611e43576040805162461bcd60e51b81526020600482015260186024820152774d75737420626520616e206f776e657220616c726561647960401b604482015290519081900360640190fd5b60008181526012602052604081208054340190819055611e62906121cf565b60008381526012602052604081206001015491925090611e8d90610b8584606463ffffffff61246416565b6040805185815242602082015233818301526000606082015234608082015260a0810183905290519192507f99349e3e915f5052737c40f222795c4bd5e8ee2e41e21dcb6a8aaf7c4c573647919081900360c00190a16001935050505090565b6000808311611f3c576040805162461bcd60e51b815260206004820152601660248201527506d7573742062652067726561746572207468616e20360541b604482015290519081900360640190fd5b601354831115611f80576040805162461bcd60e51b815260206004820152600a6024820152691b5d5cdd08195e1a5cdd60b21b604482015290519081900360640190fd5b60008211611fbf5760405162461bcd60e51b81526004018080602001828103825260228152602001806130fa6022913960400191505060405180910390fd5b610d058211156120005760405162461bcd60e51b815260040180806020018281038252602181526020018061304b6021913960400191505060405180910390fd5b61200983611303565b15612160576000838152601260205260408120805460019091015490916127109061203e82610b85868963ffffffff61246416565b9050600061205683610b85868a63ffffffff61246416565b9050600080612066813086612a6e565b60008c815260126020908152604091829020805489900381556001018054889003905581518e815242918101919091523381830152606081018d90526080810188905260a0810184905260c0810187905286840360e082018190529151939550919350917f18be1fd69582441af305bfdbab6adc71a4cedcef561788b6a884795146009f85918190036101000190a16120fe84612c68565b5061210a30338361259d565b61214f576040805162461bcd60e51b81526020600482015260116024820152706d757374207472616e736665722066656560781b604482015290519081900360640190fd5b600198505050505050505050610d90565b506000610d90565b600a5481565b60008061217b600061240c565b9050600061219a600454610b8584600b5461246490919063ffffffff16565b6004549091506121b490610b85868463ffffffff61246416565b949350505050565b6000610d8a33848461259d565b60045481565b600080805260146020527f4f26c3876aa9f4b92579780beea1161a61f87ebf1ec6ee865b299e447ecba99e547f4f26c3876aa9f4b92579780beea1161a61f87ebf1ec6ee865b299e447ecba99d5482612229858484612448565b95945050505050565b601460205260009081526040902080546001820154600283015460049093015460ff8084169461010090940416929085565b604080516323b872dd60e01b81523360048201523060248201526044810184905290516000916001600160a01b038616916323b872dd9160648082019260209290919082900301818787803b1580156122bc57600080fd5b505af11580156122d0573d6000803e3d6000fd5b505050506040513d60208110156122e657600080fd5b506122f4905033308461259d565b506110a18484846128a3565b6001600160a01b038116600090815260146020526040812060028101546001909101546004546121b4908290610b85908563ffffffff61246416565b60008061234f838663ffffffff612a5f16565b90506000612363858763ffffffff61246416565b90506000612377858963ffffffff61246416565b9050600061238e6110c4848463ffffffff612a5f16565b905060006123a2878a63ffffffff61246416565b60040290506123b7828263ffffffff6124c416565b9a9950505050505050505050565b600760209081526000928352604080842090915290825290205481565b6012602052600090815260409020805460018201546002909201549091906001600160a01b031683565b6001600160a01b038116600090815260146020526040812060028101546001909101546004546121b4908390610b85908463ffffffff61246416565b6000806110de6110d1848663ffffffff61246416565b600d5481565b60008261247357506000610d90565b8282028284828161248057fe5b04146124bd5760405162461bcd60e51b81526004018080602001828103825260218152602001806130d96021913960400191505060405180910390fd5b9392505050565b60006124bd83836040518060400160405280601a81526020017f536166654d6174683a206469766973696f6e206279207a65726f000000000000815250612dc8565b600080821161251457600080fd5b600354612527908363ffffffff612a5f16565b6003553060009081526006602052604090205461254a908363ffffffff612a5f16565b3060008181526006602090815260408083209490945583518681529351929391927fddf252ad1be2c89b69c2b068fc378daa952ba7f163c4a11628f55a4df523b3ef9281900390910190a3506001919050565b6001600160a01b03831660009081526006602052604081205482111561260a576040805162461bcd60e51b815260206004820181905260248201527f53656e646572206d757374206861766520656e6f75676820746f207370656e64604482015290519081900360640190fd5b6001600160a01b038416600090815260066020526040902054612633908363ffffffff612a4d16565b6001600160a01b038086166000908152600660205260408082209390935590851681522054612668908363ffffffff612a5f16565b6001600160a01b0380851660008181526006602090815260409182902094909455805186815290519193928816927fddf252ad1be2c89b69c2b068fc378daa952ba7f163c4a11628f55a4df523b3ef92918290030190a35060019392505050565b6001600160a01b03808416600081815260076020908152604080832094871680845294825280832086905580518681529051929493927f8c5be1e5ebec7d5bd14f71427d1e84f3dd0314c0f7b2291e5b200ac8c7c3b925929181900390910190a35060019392505050565b6001600160a01b0382166000908152601460209081526040808320338452600501909152812054819061276657600080fd5b61271083111561277557600080fd5b6000831161278257600080fd5b6001600160a01b038416600081815260146020818152604080842033855260058101835290842054949093525260048101546001820154600290920154612710939287840285900492916127da83610b858487612464565b97506127f083610b85838763ffffffff61246416565b6001600160a01b038b1660008181526014602081815260408084203380865260058201845282862080548d90039055948690529282526004830180548b900390556001830180548f9003905560029092018054869003905581519384528301919091528181018b90526060820183905260808201879052519198507feb755d537a0caac69ccb1ac1dc2b7397a32bb19f93bd06013c57ac0b2e5dd69c919081900360a00190a15050505050509250929050565b6001600160a01b0383166000908152601460209081526040808320805460ff19168155600181018054860190556002810180548701905533845260050190915290205461298b576001600160a01b0383166000818152601460209081526040808320600301805460018082018355918552838520018054336001600160a01b031991821681179092558186526010855292852080548084018255908652938520909301805483169095179094556011805494850181559092527f31ecc21a745e3968a04e9570e4425bc18fa8019c68028196b546d1669c200c68909201805490911690911790555b6001600160a01b0383166000908152601460205260408120600181015460029091015490916129bc8583868661233c565b6001600160a01b0387166000818152601460209081526040808320600481018054870190553380855260059091018352928190208054860190558051938452908301919091528181018790526060820188905260808201839052519192507f2f3289d16dbc3007471d28c4936df3a95222bc938112449400d049637e3309ce919081900360a00190a1505050505050565b600082821115612a5957fe5b50900390565b6000828201838110156124bd57fe5b6000806001600160a01b038516301415612a935760009150612a908484612e6a565b90505b6001600160a01b038416301415612ab557612aae8584612eec565b9150600090505b6001600160a01b0385163014801590612ad757506001600160a01b0384163014155b15612af557612ae68584612eec565b9150612af28483612e6a565b90505b935093915050565b6001600160a01b038416612b47576040516001600160a01b0382169083156108fc029084906000818181858888f19350505050158015612b41573d6000803e3d6000fd5b50612bf0565b6001600160a01b038416301415612b6357612b4130828561259d565b836001600160a01b031663a9059cbb82846040518363ffffffff1660e01b815260040180836001600160a01b03166001600160a01b0316815260200182815260200192505050602060405180830381600087803b158015612bc357600080fd5b505af1158015612bd7573d6000803e3d6000fd5b505050506040513d6020811015612bed57600080fd5b50505b50505050565b6001600160a01b038216600090815260146020526040812054610100900460ff1615612c23575081612c4c565b6001600160a01b038216600090815260146020526040902054610100900460ff1615612c4c5750805b6001600160a01b03811615612c6357612c63611b96565b505050565b6000808211612c7657600080fd5b30600090815260066020526040902054821115612c9257600080fd5b600354612ca5908363ffffffff612a4d16565b60035530600090815260066020526040902054612cc8908363ffffffff612a4d16565b306000818152600660209081526040808320949094558351868152935191937fddf252ad1be2c89b69c2b068fc378daa952ba7f163c4a11628f55a4df523b3ef929081900390910190a3506001919050565b612d2261302c565b600560005b81811015612dc057600181015b82811015612db757848160058110612d4857fe5b6020020151858360058110612d5957fe5b60200201511115612daf576000858360058110612d7257fe5b60200201519050858260058110612d8557fe5b6020020151868460058110612d9657fe5b602002015280868360058110612da857fe5b6020020152505b600101612d34565b50600101612d27565b509192915050565b60008183612e545760405162461bcd60e51b81526004018080602001828103825283818151815260200191508051906020019080838360005b83811015612e19578181015183820152602001612e01565b50505050905090810190601f168015612e465780820380516001836020036101000a031916815260200191505b509250505060405180910390fd5b506000838581612e6057fe5b0495945050505050565b6001600160a01b0382166000908152601460205260408120600181015460028201549154909190610100900460ff1615612eab57612ea88585612f50565b93505b612eb6848383612448565b6001600160a01b038616600090815260146020526040902060018101805487019055600201805482900390559250505092915050565b6001600160a01b03821660009081526014602052604081206002810154600190910154612f1a848383612448565b6001600160a01b038616600090815260146020526040902060028101805487019055600101805482900390559250505092915050565b600080612f5c84612300565b90506000600b54821015612fc257612f85600f54610b8584600b54612a4d90919063ffffffff16565b90506000612fa2600b54610b85848861246490919063ffffffff16565b9050612fad81612c68565b50612fbe858263ffffffff612a4d16565b9350505b600b5482111561302457612fe7600f54610b85600b5485612a4d90919063ffffffff16565b90506000613004600b54610b85848861246490919063ffffffff16565b905061300f81612506565b50613020858263ffffffff612a5f16565b9350505b505092915050565b6040518060a00160405280600590602082028036833750919291505056fe4c69717569646174696f6e206d757374206265206c657373207468616e203333254d757374207472616e73666572206d696e7420616d6f756e7420746f2073656e6465724c69717569646174696f6e206d757374206265206c657373207468616e2031306b53656e646572206d757374206861766520656e6f75676820616c6c6f77616e636520746f2073656e64536166654d6174683a206d756c7469706c69636174696f6e206f766572666c6f774c69717569646174696f6e206d7573742062652067726561746572207468616e2030a2646970667358221220b7e7d4d25474e018f82676dbcabe9c00b8bb2b9de11a4c4d11433f5547f939ad64736f6c63430006040033536166654d6174683a206d756c7469706c69636174696f6e206f766572666c6f77ddf252ad1be2c89b69c2b068fc378daa952ba7f163c4a11628f55a4df523b3ef",
  "source": "pragma solidity 0.6.4;\ninterface ERC20 {\n    function totalSupply() external view returns (uint);\n    function balanceOf(address account) external view returns (uint);\n    function transfer(address, uint) external returns (bool);\n    function allowance(address owner, address spender) external view returns (uint);\n    function approve(address, uint) external returns (bool);\n    function transferFrom(address, address, uint) external returns (bool);\n    event Transfer(address indexed from, address indexed to, uint amount);\n    event Approval(address indexed owner, address indexed spender, uint amount);\n}\nlibrary SafeMath {\n function sub(uint a, uint b) internal pure returns (uint) {\n  assert(b <= a);\n  return a - b;\n  }\n\n function add(uint a, uint b) internal pure returns (uint)   {\n  uint c = a + b;\n  assert(c >= a);\n  return c;\n  }\n  function mul(uint a, uint b) internal pure returns (uint) {\n      if (a == 0) {\n          return 0;\n      }\n      uint c = a * b;\n      require(c / a == b, \"SafeMath: multiplication overflow\");\n      return c;\n  }\n\n  function div(uint a, uint b) internal pure returns (uint) {\n      return div(a, b, \"SafeMath: division by zero\");\n  }\n\n  function div(uint a, uint b, string memory errorMessage) internal pure returns (uint) {\n      require(b > 0, errorMessage);\n      uint c = a / b;\n      return c;\n  }\n}\ncontract MAI is ERC20{\n    using SafeMath for uint;\n    string public name = \"MAI Asset\";\n    string public symbol = \"MAI\";\n    uint public decimals  = 18;\n    uint public override totalSupply;\n    uint public _1 = 10**decimals;\n    bool private notEntered;\n\n    mapping(address => uint) public override balanceOf;\n    mapping(address => mapping(address => uint)) public override allowance;\n\n    uint public minCollaterisation;\n    uint public defaultCollateralisation;\n    uint public etherPrice;\n    uint public medianMAIValue;\n    address[] public arrayAnchor;\n    uint public mintedMAI;\n    uint public pooledMAI;\n    uint public incentiveFactor = 10;\n    mapping(address => MemberData) public mapAddress_MemberData;\n    address[] public members;\n    struct MemberData {\n        address[] exchanges;\n        uint CDP;\n    }\n\n    mapping(uint => CDPData) public mapCDP_Data;\n    uint public countOfCDPs;\n    struct CDPData {\n        uint collateral;\n        uint debt;\n        address payable owner;\n    }\n\n    mapping(address => ExchangeData) public mapAsset_ExchangeData;\n    address[] public exchanges;\n\n     struct ExchangeData {\n        bool listed;\n        bool isAnchor;\n        uint balanceMAI;\n        uint balanceAsset;\n        address[] stakers;\n        uint poolUnits;\n        mapping(address => uint) stakerUnits;\n    }\n    event Transfer (address indexed from, address indexed to, uint amount);\n    event Approval ( address indexed owner, address indexed spender, uint amount);\n\n    event NewCDP(uint CDP, uint time, address owner, uint debtIssued, uint collateralHeld, uint collateralisation);\n    event UpdateCDP(uint CDP, uint time, address owner, uint debtAdded, uint collateralAdded, uint collateralisation);\n    event CloseCDP(uint CDP, uint time, address owner, uint debtPaid, uint etherReturned);\n    event LiquidateCDP(uint CDP, uint time, address liquidator, uint liquidation, uint etherSold, uint maiBought, uint debtDeleted, uint feeClaimed);\n    event AddLiquidity(address asset, address liquidityProvider, uint amountMAI, uint amountAsset, uint unitsIssued);\n    event RemoveLiquidity(address asset, address liquidityProvider, uint amountMAI, uint amountAsset, uint unitsClaimed);\n    event Swapped(address assetFrom, address assetTo, uint inputAmount, uint maiAmount, uint outPutAmount, address recipient);\n    event AnchorRemoved(address assetAnchor, uint delta, uint assetValue, address recipient);\n    function transfer(address to, uint amount) public override  returns (bool success) {\n        _transfer(msg.sender, to, amount);\n        return true;\n    }\n    function approve(address spender, uint amount) public override  returns (bool success) {\n        _approve(msg.sender, spender, amount);\n        return true;\n    }\n    function _approve(address _approver, address _spender, uint _amount) internal returns (bool success){\n        allowance[_approver][_spender] = _amount;\n        emit Approval(_approver, _spender, _amount);\n        return true;\n    }\n    function _transfer(address _from, address _to, uint _amount) internal returns (bool success) {\n        require(balanceOf[_from] >= _amount,'Sender must have enough to spend');\n        balanceOf[_from] = balanceOf[_from].sub(_amount);\n        balanceOf[_to] = balanceOf[_to].add(_amount);\n        emit Transfer(_from, _to, _amount);\n        return true;\n    }\n    function transferFrom(address from, address to, uint amount) public override returns (bool success) {\n        require(amount <= allowance[from][to], 'Sender must have enough allowance to send');\n        allowance[from][to] = allowance[from][to].sub(amount);\n        _transfer(from, to, amount);\n        return true;\n    }\n\n    function _mint(uint _amount) internal returns (bool success){\n        require(_amount > 0);\n        totalSupply = totalSupply.add(_amount);\n        balanceOf[address(this)] = balanceOf[address(this)].add(_amount);\n        emit Transfer(address(0), address(this), _amount);\n        return true;\n    }\n\n    function _burn(uint _amount) internal returns (bool success){\n        require (_amount > 0); require (_amount <= balanceOf[address(this)]);\n        totalSupply = totalSupply.sub(_amount);\n        balanceOf[address(this)] = balanceOf[address(this)].sub(_amount);\n        emit Transfer(address(this), address(0), _amount);\n        return true;\n    }\n\n    constructor () public payable {\n\n        notEntered = true;\n        defaultCollateralisation = 150;\n        minCollaterisation = 101;\n      \n        medianMAIValue = _1;\n        // Construct with 3 Eth \n        // 2 Eth @ hardcoded price -> mint 400 MAI in CDP0\n        // 1 Eth + 200 MAI in address(0) pool\n        // 200 MAI back to sender\n       \n        uint genesisPrice = 200;\n        uint purchasingPower = (msg.value/3) * genesisPrice; \n         _mint(purchasingPower*2);\n        mapAsset_ExchangeData[address(0)].balanceAsset = msg.value/3;  \n        mapAsset_ExchangeData[address(0)].balanceMAI = purchasingPower;\n        uint mintAmount = (purchasingPower.mul(100)).div(defaultCollateralisation);\n        uint CDP = 0; countOfCDPs = 0;\n        mapAddress_MemberData[address(0)].CDP = CDP;\n        mapCDP_Data[CDP].collateral = (msg.value * 2)/3;\n        mapCDP_Data[CDP].debt = mintAmount;\n        mapCDP_Data[CDP].owner = address(0);\n        mapAsset_ExchangeData[address(0)].listed = true;\n        exchanges.push(address(0));\n\n        _transfer(address(this), msg.sender, purchasingPower);\n        //emit NewCDP(CDP, now, msg.sender, mintAmount, msg.value, defaultCollateralisation);\n      \n    }\n    function calcStakerUnits(address asset, address staker) public view returns(uint stakerUnits){\n         return (mapAsset_ExchangeData[asset].stakerUnits[staker]);\n    }\n\n    function calcStakerAddress(address asset, uint index) public view returns(address staker){\n            return(mapAsset_ExchangeData[asset].stakers[index]);\n    }\n\n    function addExchange(address asset, uint amountAsset, uint amountMAI) public payable returns (bool success){\n        require(MAI.transferFrom(msg.sender, address(this), amountMAI), 'must collect mai');\n        ERC20(asset).transferFrom(msg.sender, address(this), amountAsset);\n        mapAsset_ExchangeData[asset].balanceMAI = amountMAI;\n        mapAsset_ExchangeData[asset].balanceAsset = amountAsset;\n        mapAsset_ExchangeData[asset].listed = true;\n        _addLiquidity(asset, amountAsset, amountMAI);\n        exchanges.push(asset);\n        return true;\n    }\n\n    receive() external payable {\n      require (msg.value > 0, 'Must be more than 0 to open CDP');\n      _manageCDP(msg.sender, msg.value, defaultCollateralisation);\n    }\n\n    function openCDP(uint collateralisation) public payable returns (bool success) {\n      require (msg.value > 0, 'Must be more than 0 to open CDP');\n      require (collateralisation >= minCollaterisation, \"Must be greater than 101%\");\n      _manageCDP(msg.sender, msg.value, collateralisation);\n      return true;\n    }\n\n    function addCollateralToCDP() public payable returns (bool success) {\n        require (msg.value > 0, 'Must be more than 0 to open CDP');\n        uint CDP = mapAddress_MemberData[msg.sender].CDP;\n        require (CDP > 0, \"Must be an owner already\");\n        mapCDP_Data[CDP].collateral += msg.value;\n        uint purchasingPower = calcEtherPPinMAI(mapCDP_Data[CDP].collateral);//how valuable Ether is in MAI\n        uint collateralisation = ((purchasingPower).mul(100)).div(mapCDP_Data[CDP].debt);\n        emit UpdateCDP(CDP, now, msg.sender, 0, msg.value, collateralisation);\n        return true;\n    }\n\n    function remintMAIFromCDP(uint collateralisation) public payable returns (bool success) {\n        require (collateralisation >= minCollaterisation, \"Must be greater than 101%\");\n        uint CDP = mapAddress_MemberData[msg.sender].CDP;\n        require (CDP != 0, \"Must be an owner already\");\n        uint collateral = mapCDP_Data[CDP].collateral;\n        uint purchasingPower = calcEtherPPinMAI(collateral);//how valuable Ether is in MAI\n        uint maxMintAmount = (purchasingPower.mul(collateralisation)).div(100);\n        uint additionalMintAmount = maxMintAmount.sub(mapCDP_Data[CDP].debt);\n        mapCDP_Data[CDP].debt += additionalMintAmount;\n        _mint(additionalMintAmount);\n        require (_transfer(address(this), msg.sender, additionalMintAmount), 'Must transfer mint amount to sender');\n        emit UpdateCDP(CDP, now, msg.sender, additionalMintAmount, 0, collateralisation);\n        return true;\n    }\n\n    function _manageCDP(address payable _owner, uint _value, uint _collateralisation) internal returns (bool success){\n      uint purchasingPower = calcEtherPPinMAI(_value);//how valuable Ether is in MAI\n      uint mintAmount = (purchasingPower.mul(100)).div(_collateralisation);\n      uint CDP = mapAddress_MemberData[_owner].CDP;\n      if (CDP != 0) {\n          mapCDP_Data[CDP].collateral += _value;\n          mapCDP_Data[CDP].debt += mintAmount;\n      } else {\n          countOfCDPs += 1;\n          CDP = countOfCDPs;\n          mapAddress_MemberData[_owner].CDP = CDP;\n          mapCDP_Data[CDP].collateral = _value;\n          mapCDP_Data[CDP].debt = mintAmount;\n          mapCDP_Data[CDP].owner = _owner;\n      }\n      _mint(mintAmount);\n      require (_transfer(address(this), _owner, mintAmount), 'Must transfer mint amount to sender');\n      emit NewCDP(CDP, now, _owner, mintAmount, _value, _collateralisation);\n      return true;\n    }\n\n    function closeCDP(uint _liquidation) public returns (bool success){\n      uint CDP = mapAddress_MemberData[msg.sender].CDP;\n      require(CDP != 0, 'CDP must exist'); //require CDP exists\n      require(_liquidation > 0, 'Liquidation must be greater than 0'); //require liquidation to be greater than 0\n      require(_liquidation <= 10000, 'Liquidation must be less than 10k');\n      uint debt = mapCDP_Data[CDP].debt;\n      uint basisPoints = 10000;\n      uint closeAmount = debt.div(basisPoints.div(_liquidation));\n      uint collateral = mapCDP_Data[CDP].collateral;\n      uint returnAmount = collateral.div(basisPoints.div(_liquidation));\n      require(MAI._approve(msg.sender, address(this), closeAmount), 'Must approve first');\n      require(MAI.transferFrom(msg.sender, address(this), closeAmount), 'must collect debt');\n      require(_burn(closeAmount), 'Must burn debt');\n      mapCDP_Data[CDP].debt -= closeAmount;\n      mapCDP_Data[CDP].collateral -= returnAmount;\n      msg.sender.transfer(returnAmount);\n      emit CloseCDP(CDP, now, msg.sender, closeAmount, returnAmount);\n      return true;\n    }\n\n    function liquidateCDP(uint CDP, uint liquidation) public returns (bool success){\n        require(CDP > 0, \"must be greater than 0\");\n        require(CDP <= countOfCDPs, \"must exist\");\n        require(liquidation > 0, 'Liquidation must be greater than 0'); //require liquidation to be greater than 0\n        require(liquidation <= 3333, 'Liquidation must be less than 33%');\n        if (checkLiquidationPoint(CDP)){\n            uint collateral = mapCDP_Data[CDP].collateral;\n            uint debt = mapCDP_Data[CDP].debt;\n            uint basisPoints = 10000;\n            uint liquidatedCollateral = (collateral.mul(liquidation)).div(basisPoints);\n            uint debtDeleted = (debt.mul(liquidation)).div(basisPoints);\n            uint maiBought; uint _y = 0;\n            (maiBought, _y) = _swapTokenToToken(address(0), address(this), liquidatedCollateral);\n            uint fee = maiBought - debtDeleted;\n            mapCDP_Data[CDP].collateral -= liquidatedCollateral;\n            mapCDP_Data[CDP].debt -= debtDeleted;\n            emit LiquidateCDP(CDP, now, msg.sender, liquidation, liquidatedCollateral, maiBought, debtDeleted, fee);\n            _burn(debtDeleted);\n            require(_transfer(address(this), address(msg.sender), fee), \"must transfer fee\");\n            return true;\n        }   else {\n            return false;\n        }\n    }\n\n    //==================================================================================//\n    // Liquidity functions\n\n    function addLiquidityToEtherPool (uint amountMAI) public payable returns (bool success) {\n        require((amountMAI > 0) || ((msg.value > 0)), \"Must get Mai or Eth\");\n        //require(transferFrom(msg.sender, address(this), amountMAI), \"Must collect MAI\");\n        _transfer(msg.sender, address(this), amountMAI);\n        _addLiquidity(address(0), msg.value, amountMAI);\n        return true;\n    }\n\n    function addLiquidityToAssetPool (address asset, uint amountAsset, uint amountMAI) public returns (bool success) {\n        ERC20(asset).transferFrom(msg.sender, address(this), amountAsset);  \n        //require(transferFrom(msg.sender, address(this), amountMAI), \"Must collect MAI\");\n        _transfer(msg.sender, address(this), amountMAI);\n        _addLiquidity(asset, amountAsset, amountMAI);\n        return true;\n    }\n \n    function _addLiquidity(address asset, uint a, uint m) internal {\n        if (mapAsset_ExchangeData[asset].listed = false) {                                                         \n            exchanges.push(asset);                                                // Add new exchange\n            mapAsset_ExchangeData[asset].listed = true;\n            mapAsset_ExchangeData[asset].balanceMAI = m;\n            mapAsset_ExchangeData[asset].balanceAsset = a;\n        } else {\n            mapAsset_ExchangeData[asset].balanceMAI += m;\n            mapAsset_ExchangeData[asset].balanceAsset += a;\n        }\n        if (mapAsset_ExchangeData[asset].stakerUnits[msg.sender] == 0) {\n            mapAsset_ExchangeData[asset].stakers.push(msg.sender);\n            mapAddress_MemberData[msg.sender].exchanges.push(asset);\n            members.push(msg.sender);\n        }\n        uint M = mapAsset_ExchangeData[asset].balanceMAI;\n        uint A = mapAsset_ExchangeData[asset].balanceAsset;\n        uint units = calcStakeUnits(a, A, m, M);\n        mapAsset_ExchangeData[asset].poolUnits += units;\n        mapAsset_ExchangeData[asset].stakerUnits[msg.sender] += units;\n        emit AddLiquidity(asset, msg.sender, m, a, units);\n    }\n\n    function removeLiquidityPool(address asset, uint bp) public returns (bool success) {\n        uint _outputMAI; uint _outputAsset;\n        (_outputMAI, _outputAsset) = _removeLiquidity(asset, bp);\n        if(asset == address(0)){\n            msg.sender.transfer(_outputAsset);\n        } else {\n            ERC20(asset).transfer(msg.sender, _outputAsset);\n        }\n\n        require (_transfer(address(this), msg.sender, _outputMAI));\n        return true;\n    }\n\n    function _removeLiquidity(address _asset, uint _bp) internal returns (uint _outputMAI, uint _outputAsset) {\n        require(mapAsset_ExchangeData[_asset].stakerUnits[msg.sender] > 0);\n        require(_bp <= 10000); require(_bp > 0);\n        uint _basisPoints = 10000;\n        uint _stakerUnits = mapAsset_ExchangeData[_asset].stakerUnits[msg.sender];\n        uint _units = (_stakerUnits * _bp)/_basisPoints;\n        uint _total = mapAsset_ExchangeData[_asset].poolUnits;\n        uint _balanceMAI = mapAsset_ExchangeData[_asset].balanceMAI;\n        uint _balanceAsset = mapAsset_ExchangeData[_asset].balanceAsset;\n        _outputMAI = (_balanceMAI.mul(_units)).div(_total);\n        _outputAsset = (_balanceAsset.mul(_units)).div(_total);\n        mapAsset_ExchangeData[_asset].stakerUnits[msg.sender] -= _units;\n        mapAsset_ExchangeData[_asset].poolUnits -= _units;\n        mapAsset_ExchangeData[_asset].balanceMAI -= _outputMAI;\n        mapAsset_ExchangeData[_asset].balanceAsset -= _outputAsset;\n        emit RemoveLiquidity(_asset, msg.sender, _outputMAI, _outputAsset, _units);\n        return(_outputMAI, _outputAsset);\n    }\n\n    function swapTokenToToken(address assetFrom, address assetTo, uint inputAmount) public payable returns (bool success) {\n        require((inputAmount > 0), \"Must get Asset\");\n        uint maiAmount = 0; uint outputAmount = 0;\n        if(assetFrom == address(0)){\n            require ((msg.value == inputAmount), 'must get ETH');\n        } else if (assetFrom == address(this)){\n            _transfer(msg.sender, address(this), inputAmount); \n        } else {\n            ERC20(assetFrom).transferFrom(msg.sender, address(this), inputAmount);\n        }\n        \n        (maiAmount, outputAmount) = _swapTokenToToken(assetFrom, assetTo, inputAmount);\n        emit Swapped(assetFrom, assetTo, inputAmount, maiAmount, outputAmount, msg.sender);\n        _handleTransferOut(assetTo, maiAmount, outputAmount,  msg.sender);\n        _checkAnchor(assetFrom, assetTo);\n        return true;\n    }\n\n    function _swapTokenToToken(address _assetFrom, address _assetTo, uint _amount) internal returns(uint _m, uint _y){ \n        if(_assetFrom == address(this)){\n            _m=0;\n            _y = _swapMaiToAsset(_assetTo, _amount);  \n        }\n        if(_assetTo == address(this)){\n            _m= _swapAssetToMai(_assetFrom, _amount);\n            _y = 0;\n        }\n        if(_assetFrom != address(this) && _assetTo != address(this)){\n            _m = _swapAssetToMai(_assetFrom, _amount);\n            _y = _swapMaiToAsset(_assetTo, _m);\n        }   \n        return (_m, _y);\n    }\n\n    function _swapAssetToMai(address _assetFrom, uint _x) internal returns (uint _y){\n        uint _X = mapAsset_ExchangeData[_assetFrom].balanceAsset;\n        uint _Y = mapAsset_ExchangeData[_assetFrom].balanceMAI;\n        _y = calcCLPSwap(_x, _X, _Y);\n        mapAsset_ExchangeData[_assetFrom].balanceAsset += _x;\n        mapAsset_ExchangeData[_assetFrom].balanceMAI -= _y;\n        return _y;\n    }\n\n    function _swapMaiToAsset(address _assetTo, uint _x) internal returns (uint _y){\n        uint _X = mapAsset_ExchangeData[_assetTo].balanceMAI;\n        uint _Y = mapAsset_ExchangeData[_assetTo].balanceAsset;\n        if(mapAsset_ExchangeData[_assetTo].isAnchor){\n         _x = _adjustAmountIfAnchor(_assetTo, _x);\n        }\n         _y = calcCLPSwap(_x, _X, _Y);\n        mapAsset_ExchangeData[_assetTo].balanceMAI += _x;\n        mapAsset_ExchangeData[_assetTo].balanceAsset -= _y;\n        return _y;\n    }\n\n    //======================================================================\n    //Anchors\n    function addAnchor(address asset, uint amountAsset, uint amountMAI) public payable returns (bool success){\n        require((arrayAnchor.length < 5), \"must only have 5 anchors\");\n        if(!mapAsset_ExchangeData[asset].isAnchor){\n        require(MAI.transferFrom(msg.sender, address(this), amountMAI), 'must collect mai');\n        ERC20(asset).transferFrom(msg.sender, address(this), amountAsset);\n        mapAsset_ExchangeData[asset].balanceMAI = amountMAI;\n        mapAsset_ExchangeData[asset].balanceAsset = amountAsset;\n        mapAsset_ExchangeData[asset].listed = true;\n        mapAsset_ExchangeData[asset].isAnchor = true;\n        _addLiquidity(asset, amountAsset, amountMAI);\n        arrayAnchor.push(asset);\n        exchanges.push(asset);\n        }\n        return true;\n    }\n    // function removeAnchor(address asset) public returns (bool success){\n    //     require((mapAsset_ExchangeData[asset].isAnchor = true), \"must be an anchor\");\n    //     uint maxAnchorSlip = 10**17;\n    //     uint assetValue = calcValueInAsset(asset);\n    //     uint numerator = assetValue.sub(medianMAIValue);\n    //     uint denominator =(assetValue.add(medianMAIValue)).div(2);\n    //     uint delta = ((_1.mul(numerator)).div(denominator));\n    //     require((delta > maxAnchorSlip), \"percentage difference > anchor limit percentage \");\n    //     for (uint i=0; i < arrayAnchor.length; i++) {\n    //          if (arrayAnchor[i] == asset){\n    //              arrayAnchor[i] = arrayAnchor[arrayAnchor.length - 1];\n    //              arrayAnchor.pop();\n    //             }\n    //     }\n    //     //_nukeAnchor(asset);  \n    //     emit AnchorRemoved(asset, delta, assetValue, msg.sender);\n                \n    //     return true;\n    // }\n   \n    // function _nukeAnchor(address _asset) internal returns (bool success){\n    //      uint _outputMAI; uint _outputAsset; uint _bp = 10000;\n    //     for(uint i = 0; i < mapAsset_ExchangeData[_asset].stakers[].length; i++){\n    //     (_outputMAI, _outputAsset) = _removeLiquidity(_asset, _bp);\n    //     ERC20(_asset).transfer(mapAsset_ExchangeData[_asset].stakers[i], _outputAsset);\n    //     require (_transfer(address(this), mapAsset_ExchangeData[_asset].stakers[i], _outputMAI));\n    //     }\n    //     mapAsset_ExchangeData[asset].isAnchor = false;\n    // }\n\n    function _checkAnchor(address _assetFrom, address _assetTo) internal {\n        address anchor = address(0);\n        if(mapAsset_ExchangeData[_assetFrom].isAnchor){\n            anchor = _assetFrom;\n        } else if (mapAsset_ExchangeData[_assetTo].isAnchor) {\n            anchor = _assetTo;\n        }\n        if(anchor != address(0)){\n            updatePrice();\n        }\n    }\n\n    function updatePrice() public {\n        uint[5] memory arrayPrices;\n        for(uint i = 0; i < 5; i++){\n            arrayPrices[i] = (calcValueInAsset(arrayAnchor[i]));\n        }\n        uint[5] memory sortedPriceFeed = _sortArray(arrayPrices);\n        medianMAIValue = sortedPriceFeed[2];\n    }\n\n    function _sortArray(uint[5] memory array) internal pure returns (uint[5] memory) {\n        uint l = array.length;\n        for(uint i = 0; i < l; i++) {\n            for(uint j = i+1; j < l ;j++) {\n                if(array[i] > array[j]) {\n                    uint temp = array[i];\n                    array[i] = array[j];\n                    array[j] = temp;\n                }\n            }\n        }\n        return array;\n    }\n\n    function _adjustAmountIfAnchor(address _asset, uint _amount) internal returns (uint _x){\n        uint maiValueInAsset = calcValueInAsset(_asset);\n        uint delta;\n        if(maiValueInAsset < medianMAIValue){\n            delta = (medianMAIValue.sub(maiValueInAsset)).div(incentiveFactor);\n            uint burn = (_amount.mul(delta)).div(medianMAIValue);\n             _burn(burn);\n             _x = _amount.sub(burn);\n        }\n        if (maiValueInAsset > medianMAIValue){\n            delta = (maiValueInAsset.sub(medianMAIValue)).div(incentiveFactor);\n            uint mint = (_amount.mul(delta)).div(medianMAIValue);\n             _mint(mint);\n             _x = _amount.add(mint);\n        }    \n        return _x;\n    }\n    function _handleTransferOut(address _assetTo, uint maiAmount, uint _amountAsset, address payable _recipient) internal {\n        if (_assetTo == address(0)) {\n            _recipient.transfer(_amountAsset);\n        } else if (_assetTo == address(this)) {\n            _transfer(address(this), _recipient, maiAmount);\n        } else {\n            ERC20(_assetTo).transfer(_recipient, _amountAsset);\n        }\n    }\n\n    //==================================================================================//\n    // Pricing functions\n\n   function calcValueInMAI(address asset) public view returns (uint price){\n       uint balAsset = mapAsset_ExchangeData[asset].balanceAsset;\n       uint balMAI = mapAsset_ExchangeData[asset].balanceMAI;\n       return (_1.mul(balMAI)).div(balAsset);\n   }\n\n    function calcValueInAsset(address asset) public view returns (uint price){\n       uint balAsset = mapAsset_ExchangeData[asset].balanceAsset;\n       uint balMAI = mapAsset_ExchangeData[asset].balanceMAI;\n       return (_1.mul(balAsset)).div(balMAI);\n   }\n\n   function calcEtherPriceInUSD(uint amount) public view returns (uint amountBought){\n       uint etherPriceInMAI = calcValueInMAI(address(0));\n    //    uint maiPriceInUSD = calcValueInAsset(exchangeUSD);\n       uint ethPriceInUSD = medianMAIValue.mul(etherPriceInMAI).div(_1);//\n       return (amount.mul(ethPriceInUSD)).div(_1);\n   }\n\n   function calcEtherPPinMAI(uint amount) public view returns (uint amountBought){\n        uint etherBal = mapAsset_ExchangeData[address(0)].balanceAsset;\n        uint balMAI = mapAsset_ExchangeData[address(0)].balanceMAI;\n        uint outputMAI = calcCLPSwap(amount, etherBal, balMAI);\n        return outputMAI;\n   }\n\n   function checkLiquidationPoint(uint CDP) public view returns (bool canLiquidate){\n        uint collateral = mapCDP_Data[CDP].collateral;\n        uint debt = mapCDP_Data[CDP].debt;\n        uint etherBal = mapAsset_ExchangeData[address(0)].balanceAsset;\n        uint balMAI = mapAsset_ExchangeData[address(0)].balanceMAI;\n        uint outputMAI = calcCLPLiquidation(collateral, etherBal, balMAI);\n        if(outputMAI < debt) {\n            canLiquidate = true;\n        } else {\n            canLiquidate = false;\n        }\n        return canLiquidate;\n   }\n\n   //##############################################\n   //ClP functions\n\n    function calcCLPSwap(uint x, uint X, uint Y) public pure returns (uint y){\n        // y = (x * Y * X)/(x + X)^2\n        uint numerator = x.mul(Y.mul(X));\n        uint denominator = (x.add(X)).mul(x.add(X));\n        y = numerator.div(denominator);\n        return y;\n    }\n\n    function calcCLPFee(uint x, uint X, uint Y) public pure returns (uint y){\n        // y = (x * Y * x) / (x + X)^2\n        uint numerator = x.mul(Y.mul(x));\n        uint denominator = (x.add(X)).mul(x.add(X));\n        y = numerator.div(denominator);\n        return y;\n    }\n\n    function calcCLPLiquidation(uint x, uint X, uint Y) public pure returns (uint y){\n        // y = (x * Y * (X - x))/(x + X)^2\n        uint numerator = (x.mul(Y.mul(X.sub(x))));\n        uint denominator = (x.add(X)).mul(x.add(X));\n        y = numerator.div(denominator);\n        return y;\n    }\n\n    function calcStakeUnits(uint a, uint A, uint m, uint M) public pure returns (uint units){\n        // ((M + A) * (m * A + M * a))/(4 * M * A)\n        uint numerator1 = M.add(A);\n        uint numerator2 = m.mul(A);\n        uint numerator3 = M.mul(a);\n        uint numerator = numerator1.mul((numerator2.add(numerator3)));\n        uint denominator = 4 * (M.mul(A));\n        units = numerator.div(denominator);\n        return units;\n    }\n}\n",
  "sourcePath": "/Users/guzziplus/ThesisPro/mai-contracts/contracts/Mai.sol",
  "compiler": {
    "name": "solc",
    "version": "0.6.4+commit.1dca32f3.Emscripten.clang"
  },
  "schemaVersion": "3.2.0",
  "updatedAt": "2020-06-11T01:39:09.818Z",
  "networkType": "ethereum",
  "devdoc": {
    "methods": {}
  },
  "userdoc": {
    "methods": {}
  }
}