{
  "contractName": "MAI",
  "abi": [
    {
      "inputs": [],
      "stateMutability": "payable",
      "type": "constructor"
    },
    {
      "anonymous": false,
      "inputs": [
        {
          "indexed": false,
          "internalType": "address",
          "name": "asset",
          "type": "address"
        },
        {
          "indexed": false,
          "internalType": "address",
          "name": "liquidityProvider",
          "type": "address"
        },
        {
          "indexed": false,
          "internalType": "uint256",
          "name": "amountMAI",
          "type": "uint256"
        },
        {
          "indexed": false,
          "internalType": "uint256",
          "name": "amountAsset",
          "type": "uint256"
        },
        {
          "indexed": false,
          "internalType": "uint256",
          "name": "unitsIssued",
          "type": "uint256"
        }
      ],
      "name": "AddLiquidity",
      "type": "event"
    },
    {
      "anonymous": false,
      "inputs": [
        {
          "indexed": true,
          "internalType": "address",
          "name": "owner",
          "type": "address"
        },
        {
          "indexed": true,
          "internalType": "address",
          "name": "spender",
          "type": "address"
        },
        {
          "indexed": false,
          "internalType": "uint256",
          "name": "amount",
          "type": "uint256"
        }
      ],
      "name": "Approval",
      "type": "event"
    },
    {
      "anonymous": false,
      "inputs": [
        {
          "indexed": false,
          "internalType": "uint256",
          "name": "CDP",
          "type": "uint256"
        },
        {
          "indexed": false,
          "internalType": "uint256",
          "name": "time",
          "type": "uint256"
        },
        {
          "indexed": false,
          "internalType": "address",
          "name": "owner",
          "type": "address"
        },
        {
          "indexed": false,
          "internalType": "uint256",
          "name": "debtPaid",
          "type": "uint256"
        },
        {
          "indexed": false,
          "internalType": "uint256",
          "name": "etherReturned",
          "type": "uint256"
        }
      ],
      "name": "CloseCDP",
      "type": "event"
    },
    {
      "anonymous": false,
      "inputs": [
        {
          "indexed": false,
          "internalType": "uint256",
          "name": "CDP",
          "type": "uint256"
        },
        {
          "indexed": false,
          "internalType": "uint256",
          "name": "time",
          "type": "uint256"
        },
        {
          "indexed": false,
          "internalType": "address",
          "name": "liquidator",
          "type": "address"
        },
        {
          "indexed": false,
          "internalType": "uint256",
          "name": "liquidation",
          "type": "uint256"
        },
        {
          "indexed": false,
          "internalType": "uint256",
          "name": "etherSold",
          "type": "uint256"
        },
        {
          "indexed": false,
          "internalType": "uint256",
          "name": "maiBought",
          "type": "uint256"
        },
        {
          "indexed": false,
          "internalType": "uint256",
          "name": "debtDeleted",
          "type": "uint256"
        },
        {
          "indexed": false,
          "internalType": "uint256",
          "name": "feeClaimed",
          "type": "uint256"
        }
      ],
      "name": "LiquidateCDP",
      "type": "event"
    },
    {
      "anonymous": false,
      "inputs": [
        {
          "indexed": false,
          "internalType": "uint256",
          "name": "CDP",
          "type": "uint256"
        },
        {
          "indexed": false,
          "internalType": "uint256",
          "name": "time",
          "type": "uint256"
        },
        {
          "indexed": false,
          "internalType": "address",
          "name": "owner",
          "type": "address"
        },
        {
          "indexed": false,
          "internalType": "uint256",
          "name": "debtIssued",
          "type": "uint256"
        },
        {
          "indexed": false,
          "internalType": "uint256",
          "name": "collateralHeld",
          "type": "uint256"
        },
        {
          "indexed": false,
          "internalType": "uint256",
          "name": "collateralisation",
          "type": "uint256"
        }
      ],
      "name": "NewCDP",
      "type": "event"
    },
    {
      "anonymous": false,
      "inputs": [
        {
          "indexed": false,
          "internalType": "address",
          "name": "asset",
          "type": "address"
        },
        {
          "indexed": false,
          "internalType": "address",
          "name": "liquidityProvider",
          "type": "address"
        },
        {
          "indexed": false,
          "internalType": "uint256",
          "name": "amountMAI",
          "type": "uint256"
        },
        {
          "indexed": false,
          "internalType": "uint256",
          "name": "amountAsset",
          "type": "uint256"
        },
        {
          "indexed": false,
          "internalType": "uint256",
          "name": "unitsClaimed",
          "type": "uint256"
        }
      ],
      "name": "RemoveLiquidity",
      "type": "event"
    },
    {
      "anonymous": false,
      "inputs": [
        {
          "indexed": false,
          "internalType": "uint256",
          "name": "val1",
          "type": "uint256"
        }
      ],
      "name": "Testing1",
      "type": "event"
    },
    {
      "anonymous": false,
      "inputs": [
        {
          "indexed": false,
          "internalType": "uint256",
          "name": "val1",
          "type": "uint256"
        },
        {
          "indexed": false,
          "internalType": "uint256",
          "name": "val2",
          "type": "uint256"
        }
      ],
      "name": "Testing2",
      "type": "event"
    },
    {
      "anonymous": false,
      "inputs": [
        {
          "indexed": false,
          "internalType": "uint256",
          "name": "val1",
          "type": "uint256"
        },
        {
          "indexed": false,
          "internalType": "uint256",
          "name": "val2",
          "type": "uint256"
        },
        {
          "indexed": false,
          "internalType": "uint256",
          "name": "val3",
          "type": "uint256"
        }
      ],
      "name": "Testing3",
      "type": "event"
    },
    {
      "anonymous": false,
      "inputs": [
        {
          "indexed": true,
          "internalType": "address",
          "name": "from",
          "type": "address"
        },
        {
          "indexed": true,
          "internalType": "address",
          "name": "to",
          "type": "address"
        },
        {
          "indexed": false,
          "internalType": "uint256",
          "name": "amount",
          "type": "uint256"
        }
      ],
      "name": "Transfer",
      "type": "event"
    },
    {
      "anonymous": false,
      "inputs": [
        {
          "indexed": false,
          "internalType": "uint256",
          "name": "CDP",
          "type": "uint256"
        },
        {
          "indexed": false,
          "internalType": "uint256",
          "name": "time",
          "type": "uint256"
        },
        {
          "indexed": false,
          "internalType": "address",
          "name": "owner",
          "type": "address"
        },
        {
          "indexed": false,
          "internalType": "uint256",
          "name": "debtAdded",
          "type": "uint256"
        },
        {
          "indexed": false,
          "internalType": "uint256",
          "name": "collateralAdded",
          "type": "uint256"
        },
        {
          "indexed": false,
          "internalType": "uint256",
          "name": "collateralisation",
          "type": "uint256"
        }
      ],
      "name": "UpdateCDP",
      "type": "event"
    },
    {
      "inputs": [],
      "name": "_1",
      "outputs": [
        {
          "internalType": "uint256",
          "name": "",
          "type": "uint256"
        }
      ],
      "stateMutability": "view",
      "type": "function"
    },
    {
      "inputs": [
        {
          "internalType": "address",
          "name": "",
          "type": "address"
        },
        {
          "internalType": "address",
          "name": "",
          "type": "address"
        }
      ],
      "name": "allowance",
      "outputs": [
        {
          "internalType": "uint256",
          "name": "",
          "type": "uint256"
        }
      ],
      "stateMutability": "view",
      "type": "function"
    },
    {
      "inputs": [
        {
          "internalType": "address",
          "name": "",
          "type": "address"
        }
      ],
      "name": "balanceOf",
      "outputs": [
        {
          "internalType": "uint256",
          "name": "",
          "type": "uint256"
        }
      ],
      "stateMutability": "view",
      "type": "function"
    },
    {
      "inputs": [],
      "name": "countOfCDPs",
      "outputs": [
        {
          "internalType": "uint256",
          "name": "",
          "type": "uint256"
        }
      ],
      "stateMutability": "view",
      "type": "function"
    },
    {
      "inputs": [],
      "name": "decimals",
      "outputs": [
        {
          "internalType": "uint256",
          "name": "",
          "type": "uint256"
        }
      ],
      "stateMutability": "view",
      "type": "function"
    },
    {
      "inputs": [],
      "name": "defaultCollateralisation",
      "outputs": [
        {
          "internalType": "uint256",
          "name": "",
          "type": "uint256"
        }
      ],
      "stateMutability": "view",
      "type": "function"
    },
    {
      "inputs": [],
      "name": "etherPrice",
      "outputs": [
        {
          "internalType": "uint256",
          "name": "",
          "type": "uint256"
        }
      ],
      "stateMutability": "view",
      "type": "function"
    },
    {
      "inputs": [
        {
          "internalType": "uint256",
          "name": "",
          "type": "uint256"
        }
      ],
      "name": "exchanges",
      "outputs": [
        {
          "internalType": "address",
          "name": "",
          "type": "address"
        }
      ],
      "stateMutability": "view",
      "type": "function"
    },
    {
      "inputs": [
        {
          "internalType": "address",
          "name": "",
          "type": "address"
        }
      ],
      "name": "mapAddress_MemberData",
      "outputs": [
        {
          "internalType": "uint256",
          "name": "CDP",
          "type": "uint256"
        }
      ],
      "stateMutability": "view",
      "type": "function"
    },
    {
      "inputs": [
        {
          "internalType": "address",
          "name": "",
          "type": "address"
        }
      ],
      "name": "mapAsset_ExchangeData",
      "outputs": [
        {
          "internalType": "uint256",
          "name": "balanceMAI",
          "type": "uint256"
        },
        {
          "internalType": "uint256",
          "name": "balanceAsset",
          "type": "uint256"
        },
        {
          "internalType": "uint256",
          "name": "poolUnits",
          "type": "uint256"
        }
      ],
      "stateMutability": "view",
      "type": "function"
    },
    {
      "inputs": [
        {
          "internalType": "uint256",
          "name": "",
          "type": "uint256"
        }
      ],
      "name": "mapCDP_Data",
      "outputs": [
        {
          "internalType": "uint256",
          "name": "collateral",
          "type": "uint256"
        },
        {
          "internalType": "uint256",
          "name": "debt",
          "type": "uint256"
        },
        {
          "internalType": "address payable",
          "name": "owner",
          "type": "address"
        }
      ],
      "stateMutability": "view",
      "type": "function"
    },
    {
      "inputs": [
        {
          "internalType": "uint256",
          "name": "",
          "type": "uint256"
        }
      ],
      "name": "members",
      "outputs": [
        {
          "internalType": "address",
          "name": "",
          "type": "address"
        }
      ],
      "stateMutability": "view",
      "type": "function"
    },
    {
      "inputs": [],
      "name": "minCollaterisation",
      "outputs": [
        {
          "internalType": "uint256",
          "name": "",
          "type": "uint256"
        }
      ],
      "stateMutability": "view",
      "type": "function"
    },
    {
      "inputs": [],
      "name": "mintedMAI",
      "outputs": [
        {
          "internalType": "uint256",
          "name": "",
          "type": "uint256"
        }
      ],
      "stateMutability": "view",
      "type": "function"
    },
    {
      "inputs": [],
      "name": "name",
      "outputs": [
        {
          "internalType": "string",
          "name": "",
          "type": "string"
        }
      ],
      "stateMutability": "view",
      "type": "function"
    },
    {
      "inputs": [],
      "name": "pooledMAI",
      "outputs": [
        {
          "internalType": "uint256",
          "name": "",
          "type": "uint256"
        }
      ],
      "stateMutability": "view",
      "type": "function"
    },
    {
      "inputs": [],
      "name": "symbol",
      "outputs": [
        {
          "internalType": "string",
          "name": "",
          "type": "string"
        }
      ],
      "stateMutability": "view",
      "type": "function"
    },
    {
      "inputs": [],
      "name": "totalSupply",
      "outputs": [
        {
          "internalType": "uint256",
          "name": "",
          "type": "uint256"
        }
      ],
      "stateMutability": "view",
      "type": "function"
    },
    {
      "stateMutability": "payable",
      "type": "receive"
    },
    {
      "inputs": [
        {
          "internalType": "address",
          "name": "to",
          "type": "address"
        },
        {
          "internalType": "uint256",
          "name": "amount",
          "type": "uint256"
        }
      ],
      "name": "transfer",
      "outputs": [
        {
          "internalType": "bool",
          "name": "success",
          "type": "bool"
        }
      ],
      "stateMutability": "nonpayable",
      "type": "function"
    },
    {
      "inputs": [
        {
          "internalType": "address",
          "name": "spender",
          "type": "address"
        },
        {
          "internalType": "uint256",
          "name": "amount",
          "type": "uint256"
        }
      ],
      "name": "approve",
      "outputs": [
        {
          "internalType": "bool",
          "name": "success",
          "type": "bool"
        }
      ],
      "stateMutability": "nonpayable",
      "type": "function"
    },
    {
      "inputs": [
        {
          "internalType": "address",
          "name": "from",
          "type": "address"
        },
        {
          "internalType": "address",
          "name": "to",
          "type": "address"
        },
        {
          "internalType": "uint256",
          "name": "amount",
          "type": "uint256"
        }
      ],
      "name": "transferFrom",
      "outputs": [
        {
          "internalType": "bool",
          "name": "success",
          "type": "bool"
        }
      ],
      "stateMutability": "nonpayable",
      "type": "function"
    },
    {
      "inputs": [
        {
          "internalType": "address",
          "name": "asset",
          "type": "address"
        },
        {
          "internalType": "uint256",
          "name": "amountAsset",
          "type": "uint256"
        },
        {
          "internalType": "uint256",
          "name": "amountMAI",
          "type": "uint256"
        }
      ],
      "name": "addExchange",
      "outputs": [
        {
          "internalType": "bool",
          "name": "success",
          "type": "bool"
        }
      ],
      "stateMutability": "nonpayable",
      "type": "function"
    },
    {
      "inputs": [
        {
          "internalType": "uint256",
          "name": "collateralisation",
          "type": "uint256"
        }
      ],
      "name": "openCDP",
      "outputs": [
        {
          "internalType": "bool",
          "name": "success",
          "type": "bool"
        }
      ],
      "stateMutability": "payable",
      "type": "function"
    },
    {
      "inputs": [],
      "name": "addCollateralToCDP",
      "outputs": [
        {
          "internalType": "bool",
          "name": "success",
          "type": "bool"
        }
      ],
      "stateMutability": "payable",
      "type": "function"
    },
    {
      "inputs": [
        {
          "internalType": "uint256",
          "name": "collateralisation",
          "type": "uint256"
        }
      ],
      "name": "remintMAIFromCDP",
      "outputs": [
        {
          "internalType": "bool",
          "name": "success",
          "type": "bool"
        }
      ],
      "stateMutability": "payable",
      "type": "function"
    },
    {
      "inputs": [
        {
          "internalType": "uint256",
          "name": "_liquidation",
          "type": "uint256"
        }
      ],
      "name": "closeCDP",
      "outputs": [
        {
          "internalType": "bool",
          "name": "success",
          "type": "bool"
        }
      ],
      "stateMutability": "nonpayable",
      "type": "function"
    },
    {
      "inputs": [
        {
          "internalType": "uint256",
          "name": "CDP",
          "type": "uint256"
        },
        {
          "internalType": "uint256",
          "name": "liquidation",
          "type": "uint256"
        }
      ],
      "name": "liquidateCDP",
      "outputs": [
        {
          "internalType": "bool",
          "name": "success",
          "type": "bool"
        }
      ],
      "stateMutability": "nonpayable",
      "type": "function"
    },
    {
      "inputs": [
        {
          "internalType": "uint256",
          "name": "amountMAI",
          "type": "uint256"
        }
      ],
      "name": "addLiquidityToEtherPool",
      "outputs": [
        {
          "internalType": "bool",
          "name": "success",
          "type": "bool"
        }
      ],
      "stateMutability": "payable",
      "type": "function"
    },
    {
      "inputs": [
        {
          "internalType": "address",
          "name": "asset",
          "type": "address"
        },
        {
          "internalType": "uint256",
          "name": "amountAsset",
          "type": "uint256"
        },
        {
          "internalType": "uint256",
          "name": "amountMAI",
          "type": "uint256"
        }
      ],
      "name": "addLiquidityToAssetPool",
      "outputs": [
        {
          "internalType": "bool",
          "name": "success",
          "type": "bool"
        }
      ],
      "stateMutability": "nonpayable",
      "type": "function"
    },
    {
      "inputs": [
        {
          "internalType": "address",
          "name": "asset",
          "type": "address"
        },
        {
          "internalType": "uint256",
          "name": "bp",
          "type": "uint256"
        }
      ],
      "name": "removeLiquidityPool",
      "outputs": [
        {
          "internalType": "bool",
          "name": "success",
          "type": "bool"
        }
      ],
      "stateMutability": "nonpayable",
      "type": "function"
    },
    {
      "inputs": [
        {
          "internalType": "address",
          "name": "asset",
          "type": "address"
        }
      ],
      "name": "getValueInMAI",
      "outputs": [
        {
          "internalType": "uint256",
          "name": "price",
          "type": "uint256"
        }
      ],
      "stateMutability": "view",
      "type": "function"
    },
    {
      "inputs": [
        {
          "internalType": "address",
          "name": "asset",
          "type": "address"
        }
      ],
      "name": "getValueInAsset",
      "outputs": [
        {
          "internalType": "uint256",
          "name": "price",
          "type": "uint256"
        }
      ],
      "stateMutability": "view",
      "type": "function"
    },
    {
      "inputs": [
        {
          "internalType": "uint256",
          "name": "amount",
          "type": "uint256"
        }
      ],
      "name": "getEtherPriceInUSD",
      "outputs": [
        {
          "internalType": "uint256",
          "name": "amountBought",
          "type": "uint256"
        }
      ],
      "stateMutability": "view",
      "type": "function"
    },
    {
      "inputs": [
        {
          "internalType": "uint256",
          "name": "amount",
          "type": "uint256"
        }
      ],
      "name": "getEtherPPinMAI",
      "outputs": [
        {
          "internalType": "uint256",
          "name": "amountBought",
          "type": "uint256"
        }
      ],
      "stateMutability": "view",
      "type": "function"
    },
    {
      "inputs": [
        {
          "internalType": "uint256",
          "name": "amount",
          "type": "uint256"
        }
      ],
      "name": "getMAIPPInUSD",
      "outputs": [
        {
          "internalType": "uint256",
          "name": "amountBought",
          "type": "uint256"
        }
      ],
      "stateMutability": "view",
      "type": "function"
    },
    {
      "inputs": [
        {
          "internalType": "uint256",
          "name": "CDP",
          "type": "uint256"
        }
      ],
      "name": "checkLiquidationPoint",
      "outputs": [
        {
          "internalType": "bool",
          "name": "canLiquidate",
          "type": "bool"
        }
      ],
      "stateMutability": "view",
      "type": "function"
    },
    {
      "inputs": [
        {
          "internalType": "uint256",
          "name": "x",
          "type": "uint256"
        },
        {
          "internalType": "uint256",
          "name": "X",
          "type": "uint256"
        },
        {
          "internalType": "uint256",
          "name": "Y",
          "type": "uint256"
        }
      ],
      "name": "getCLPSwap",
      "outputs": [
        {
          "internalType": "uint256",
          "name": "y",
          "type": "uint256"
        }
      ],
      "stateMutability": "pure",
      "type": "function"
    },
    {
      "inputs": [
        {
          "internalType": "uint256",
          "name": "x",
          "type": "uint256"
        },
        {
          "internalType": "uint256",
          "name": "X",
          "type": "uint256"
        },
        {
          "internalType": "uint256",
          "name": "Y",
          "type": "uint256"
        }
      ],
      "name": "getCLPFee",
      "outputs": [
        {
          "internalType": "uint256",
          "name": "y",
          "type": "uint256"
        }
      ],
      "stateMutability": "pure",
      "type": "function"
    },
    {
      "inputs": [
        {
          "internalType": "uint256",
          "name": "x",
          "type": "uint256"
        },
        {
          "internalType": "uint256",
          "name": "X",
          "type": "uint256"
        },
        {
          "internalType": "uint256",
          "name": "Y",
          "type": "uint256"
        }
      ],
      "name": "getCLPLiquidation",
      "outputs": [
        {
          "internalType": "uint256",
          "name": "y",
          "type": "uint256"
        }
      ],
      "stateMutability": "pure",
      "type": "function"
    }
  ],
  "bytecode": "0x60806040526040518060400160405280600981526020017f4d414920417373657400000000000000000000000000000000000000000000008152506000908051906020019062000051929190620008c2565b506040518060400160405280600381526020017f4d41490000000000000000000000000000000000000000000000000000000000815250600190805190602001906200009f929190620008c2565b506012600255600254600a0a6004556001600560006101000a81548160ff02191690831515021790555060966009819055506065600881905550600060c8905060008160043481620000ed57fe5b0402905062000105600382026200034960201b60201c565b50600434816200011157fe5b04601260008073ffffffffffffffffffffffffffffffffffffffff1673ffffffffffffffffffffffffffffffffffffffff1681526020019081526020016000206001018190555080601260008073ffffffffffffffffffffffffffffffffffffffff1673ffffffffffffffffffffffffffffffffffffffff168152602001908152602001600020600001819055506000620001d7600954620001c36064856200048560201b620032f41790919060201c565b6200051060201b6200337a1790919060201c565b90506000809050600060118190555080600e60008073ffffffffffffffffffffffffffffffffffffffff1673ffffffffffffffffffffffffffffffffffffffff16815260200190815260200160002060010181905550600460023402816200023b57fe5b04601060008381526020019081526020016000206000018190555081601060008381526020019081526020016000206001018190555060006010600083815260200190815260200160002060020160006101000a81548173ffffffffffffffffffffffffffffffffffffffff021916908373ffffffffffffffffffffffffffffffffffffffff160217905550601360009080600181540180825580915050600190039060005260206000200160009091909190916101000a81548173ffffffffffffffffffffffffffffffffffffffff021916908373ffffffffffffffffffffffffffffffffffffffff1602179055506200033e3033856200056260201b60201c565b505050505062000971565b60008082116200035857600080fd5b6200037482600354620007c260201b62003dc51790919060201c565b600381905550620003d382600660003073ffffffffffffffffffffffffffffffffffffffff1673ffffffffffffffffffffffffffffffffffffffff16815260200190815260200160002054620007c260201b62003dc51790919060201c565b600660003073ffffffffffffffffffffffffffffffffffffffff1673ffffffffffffffffffffffffffffffffffffffff168152602001908152602001600020819055503073ffffffffffffffffffffffffffffffffffffffff16600073ffffffffffffffffffffffffffffffffffffffff167fddf252ad1be2c89b69c2b068fc378daa952ba7f163c4a11628f55a4df523b3ef846040518082815260200191505060405180910390a360019050919050565b6000808314156200049a57600090506200050a565b6000828402905082848281620004ac57fe5b041462000505576040517f08c379a0000000000000000000000000000000000000000000000000000000008152600401808060200182810382526021815260200180620049346021913960400191505060405180910390fd5b809150505b92915050565b60006200055a83836040518060400160405280601a81526020017f536166654d6174683a206469766973696f6e206279207a65726f000000000000815250620007df60201b60201c565b905092915050565b600081600660008673ffffffffffffffffffffffffffffffffffffffff1673ffffffffffffffffffffffffffffffffffffffff1681526020019081526020016000205410156200061a576040517f08c379a00000000000000000000000000000000000000000000000000000000081526004018080602001828103825260208152602001807f53656e646572206d757374206861766520656e6f75676820746f207370656e6481525060200191505060405180910390fd5b6200067382600660008773ffffffffffffffffffffffffffffffffffffffff1673ffffffffffffffffffffffffffffffffffffffff16815260200190815260200160002054620008aa60201b62003dae1790919060201c565b600660008673ffffffffffffffffffffffffffffffffffffffff1673ffffffffffffffffffffffffffffffffffffffff168152602001908152602001600020819055506200070f82600660008673ffffffffffffffffffffffffffffffffffffffff1673ffffffffffffffffffffffffffffffffffffffff16815260200190815260200160002054620007c260201b62003dc51790919060201c565b600660008573ffffffffffffffffffffffffffffffffffffffff1673ffffffffffffffffffffffffffffffffffffffff168152602001908152602001600020819055508273ffffffffffffffffffffffffffffffffffffffff168473ffffffffffffffffffffffffffffffffffffffff167fddf252ad1be2c89b69c2b068fc378daa952ba7f163c4a11628f55a4df523b3ef846040518082815260200191505060405180910390a3600190509392505050565b600080828401905083811015620007d557fe5b8091505092915050565b600080831182906200088f576040517f08c379a00000000000000000000000000000000000000000000000000000000081526004018080602001828103825283818151815260200191508051906020019080838360005b838110156200085357808201518184015260208101905062000836565b50505050905090810190601f168015620008815780820380516001836020036101000a031916815260200191505b509250505060405180910390fd5b5060008385816200089c57fe5b049050809150509392505050565b600082821115620008b757fe5b818303905092915050565b828054600181600116156101000203166002900490600052602060002090601f016020900481019282601f106200090557805160ff191683800117855562000936565b8280016001018555821562000936579182015b828111156200093557825182559160200191906001019062000918565b5b50905062000945919062000949565b5090565b6200096e91905b808211156200096a57600081600090555060010162000950565b5090565b90565b613fb380620009816000396000f3fe6080604052600436106102345760003560e01c806360d562a71161012e5780639e307955116100ab578063cedd35ef1161006f578063cedd35ef14610e4a578063d51d2a3b14610ec7578063dd62ed3e14610f2c578063e2f3273514610fb1578063ec2889f31461103a576102bf565b80639e30795514610cab578063a9059cbb14610cd6578063ad94f8bc14610d49578063c829a4b014610d74578063cea5376414610dd7576102bf565b8063877f869c116100f2578063877f869c14610ae85780638ffb7a7114610b3757806395d89b4114610b9c5780639c0ce76814610c2c5780639c578d2e14610c4e576102bf565b806360d562a71461092f5780636b315b13146109755780636bb224c3146109d857806370a0823114610a1e578063802874e614610a83576102bf565b806324d7f269116101bc5780634343c701116101805780634343c701146107b55780634c41ce0e146107e05780634dff8d391461080b5780635c10778d1461086e5780635daf08ca146108b4576102bf565b806324d7f2691461063c5780632839fc29146106b9578063313ce567146107345780633d252e4a1461075f57806340d56e351461078a576102bf565b80630f1352f6116102035780630f1352f6146104895780631451a744146104d857806318160ddd1461052b5780631e4b5ede1461055657806323b872dd146105a9576102bf565b806306fdde03146102c457806308e789c914610354578063095ea7b3146103a35780630b25bd8414610416576102bf565b366102bf57600034116102af576040517f08c379a000000000000000000000000000000000000000000000000000000000815260040180806020018281038252601f8152602001807f4d757374206265206d6f7265207468616e203020746f206f70656e204344500081525060200191505060405180910390fd5b6102bc3334600954611065565b50005b600080fd5b3480156102d057600080fd5b506102d9611325565b6040518080602001828103825283818151815260200191508051906020019080838360005b838110156103195780820151818401526020810190506102fe565b50505050905090810190601f1680156103465780820380516001836020036101000a031916815260200191505b509250505060405180910390f35b34801561036057600080fd5b5061038d6004803603602081101561037757600080fd5b81019080803590602001909291905050506113c3565b6040518082815260200191505060405180910390f35b3480156103af57600080fd5b506103fc600480360360408110156103c657600080fd5b81019080803573ffffffffffffffffffffffffffffffffffffffff1690602001909291908035906020019092919050505061145d565b604051808215151515815260200191505060405180910390f35b34801561042257600080fd5b5061046f6004803603604081101561043957600080fd5b81019080803573ffffffffffffffffffffffffffffffffffffffff16906020019092919080359060200190929190505050611475565b604051808215151515815260200191505060405180910390f35b34801561049557600080fd5b506104c2600480360360208110156104ac57600080fd5b81019080803590602001909291905050506115f0565b6040518082815260200191505060405180910390f35b3480156104e457600080fd5b50610511600480360360208110156104fb57600080fd5b8101908080359060200190929190505050611699565b604051808215151515815260200191505060405180910390f35b34801561053757600080fd5b50610540611790565b6040518082815260200191505060405180910390f35b34801561056257600080fd5b5061058f6004803603602081101561057957600080fd5b8101908080359060200190929190505050611796565b604051808215151515815260200191505060405180910390f35b3480156105b557600080fd5b50610622600480360360608110156105cc57600080fd5b81019080803573ffffffffffffffffffffffffffffffffffffffff169060200190929190803573ffffffffffffffffffffffffffffffffffffffff16906020019092919080359060200190929190505050611c2e565b604051808215151515815260200191505060405180910390f35b34801561064857600080fd5b5061069f6004803603606081101561065f57600080fd5b81019080803573ffffffffffffffffffffffffffffffffffffffff1690602001909291908035906020019092919080359060200190929190505050611e2b565b604051808215151515815260200191505060405180910390f35b3480156106c557600080fd5b506106f2600480360360208110156106dc57600080fd5b810190808035906020019092919050505061209d565b604051808273ffffffffffffffffffffffffffffffffffffffff1673ffffffffffffffffffffffffffffffffffffffff16815260200191505060405180910390f35b34801561074057600080fd5b506107496120d9565b6040518082815260200191505060405180910390f35b34801561076b57600080fd5b506107746120df565b6040518082815260200191505060405180910390f35b34801561079657600080fd5b5061079f6120e5565b6040518082815260200191505060405180910390f35b3480156107c157600080fd5b506107ca6120eb565b6040518082815260200191505060405180910390f35b3480156107ec57600080fd5b506107f56120f1565b6040518082815260200191505060405180910390f35b34801561081757600080fd5b506108586004803603606081101561082e57600080fd5b810190808035906020019092919080359060200190929190803590602001909291905050506120f7565b6040518082815260200191505060405180910390f35b61089a6004803603602081101561088457600080fd5b810190808035906020019092919050505061217d565b604051808215151515815260200191505060405180910390f35b3480156108c057600080fd5b506108ed600480360360208110156108d757600080fd5b8101908080359060200190929190505050612286565b604051808273ffffffffffffffffffffffffffffffffffffffff1673ffffffffffffffffffffffffffffffffffffffff16815260200191505060405180910390f35b61095b6004803603602081101561094557600080fd5b81019080803590602001909291905050506122c2565b604051808215151515815260200191505060405180910390f35b34801561098157600080fd5b506109c26004803603606081101561099857600080fd5b810190808035906020019092919080359060200190929190803590602001909291905050506125a1565b6040518082815260200191505060405180910390f35b610a04600480360360208110156109ee57600080fd5b8101908080359060200190929190505050612627565b604051808215151515815260200191505060405180910390f35b348015610a2a57600080fd5b50610a6d60048036036020811015610a4157600080fd5b81019080803573ffffffffffffffffffffffffffffffffffffffff16906020019092919050505061272b565b6040518082815260200191505060405180910390f35b348015610a8f57600080fd5b50610ad260048036036020811015610aa657600080fd5b81019080803573ffffffffffffffffffffffffffffffffffffffff169060200190929190505050612743565b6040518082815260200191505060405180910390f35b348015610af457600080fd5b50610b2160048036036020811015610b0b57600080fd5b8101908080359060200190929190505050612761565b6040518082815260200191505060405180910390f35b348015610b4357600080fd5b50610b8660048036036020811015610b5a57600080fd5b81019080803573ffffffffffffffffffffffffffffffffffffffff16906020019092919050505061284e565b6040518082815260200191505060405180910390f35b348015610ba857600080fd5b50610bb161290d565b6040518080602001828103825283818151815260200191508051906020019080838360005b83811015610bf1578082015181840152602081019050610bd6565b50505050905090810190601f168015610c1e5780820380516001836020036101000a031916815260200191505b509250505060405180910390f35b610c346129ab565b604051808215151515815260200191505060405180910390f35b348015610c5a57600080fd5b50610c9160048036036040811015610c7157600080fd5b810190808035906020019092919080359060200190929190505050612bfc565b604051808215151515815260200191505060405180910390f35b348015610cb757600080fd5b50610cc0612f4e565b6040518082815260200191505060405180910390f35b348015610ce257600080fd5b50610d2f60048036036040811015610cf957600080fd5b81019080803573ffffffffffffffffffffffffffffffffffffffff16906020019092919080359060200190929190505050612f54565b604051808215151515815260200191505060405180910390f35b348015610d5557600080fd5b50610d5e612f6c565b6040518082815260200191505060405180910390f35b348015610d8057600080fd5b50610dc160048036036060811015610d9757600080fd5b81019080803590602001909291908035906020019092919080359060200190929190505050612f72565b6040518082815260200191505060405180910390f35b348015610de357600080fd5b50610e2660048036036020811015610dfa57600080fd5b81019080803573ffffffffffffffffffffffffffffffffffffffff16906020019092919050505061300a565b60405180848152602001838152602001828152602001935050505060405180910390f35b348015610e5657600080fd5b50610ead60048036036060811015610e6d57600080fd5b81019080803573ffffffffffffffffffffffffffffffffffffffff1690602001909291908035906020019092919080359060200190929190505050613034565b604051808215151515815260200191505060405180910390f35b348015610ed357600080fd5b50610f1660048036036020811015610eea57600080fd5b81019080803573ffffffffffffffffffffffffffffffffffffffff1690602001909291905050506131c0565b6040518082815260200191505060405180910390f35b348015610f3857600080fd5b50610f9b60048036036040811015610f4f57600080fd5b81019080803573ffffffffffffffffffffffffffffffffffffffff169060200190929190803573ffffffffffffffffffffffffffffffffffffffff16906020019092919050505061327f565b6040518082815260200191505060405180910390f35b348015610fbd57600080fd5b50610fea60048036036020811015610fd457600080fd5b81019080803590602001909291905050506132a4565b604051808481526020018381526020018273ffffffffffffffffffffffffffffffffffffffff1673ffffffffffffffffffffffffffffffffffffffff168152602001935050505060405180910390f35b34801561104657600080fd5b5061104f6132ee565b6040518082815260200191505060405180910390f35b600080611071846115f0565b9050600061109b8461108d6064856132f490919063ffffffff16565b61337a90919063ffffffff16565b90506000600e60008873ffffffffffffffffffffffffffffffffffffffff1673ffffffffffffffffffffffffffffffffffffffff1681526020019081526020016000206001015490506000811461113957856010600083815260200190815260200160002060000160008282540192505081905550816010600083815260200190815260200160002060010160008282540192505081905550611222565b6001601160008282540192505081905550601154905080600e60008973ffffffffffffffffffffffffffffffffffffffff1673ffffffffffffffffffffffffffffffffffffffff16815260200190815260200160002060010181905550856010600083815260200190815260200160002060000181905550816010600083815260200190815260200160002060010181905550866010600083815260200190815260200160002060020160006101000a81548173ffffffffffffffffffffffffffffffffffffffff021916908373ffffffffffffffffffffffffffffffffffffffff1602179055505b61122b826133c4565b506112373088846134f1565b61128c576040517f08c379a0000000000000000000000000000000000000000000000000000000008152600401808060200182810382526023815260200180613ece6023913960400191505060405180910390fd5b7fa7935d2090c8af510740aa727a13c8268b4b7644c372e3407184b25713005e24814289858a8a604051808781526020018681526020018573ffffffffffffffffffffffffffffffffffffffff1673ffffffffffffffffffffffffffffffffffffffff168152602001848152602001838152602001828152602001965050505050505060405180910390a1600193505050509392505050565b60008054600181600116156101000203166002900480601f0160208091040260200160405190810160405280929190818152602001828054600181600116156101000203166002900480156113bb5780601f10611390576101008083540402835291602001916113bb565b820191906000526020600020905b81548152906001019060200180831161139e57829003601f168201915b505050505081565b6000806113d060006131c0565b905060006113ff600b60009054906101000a900473ffffffffffffffffffffffffffffffffffffffff1661284e565b9050600061142a60045461141c85856132f490919063ffffffff16565b61337a90919063ffffffff16565b905061145360045461144583886132f490919063ffffffff16565b61337a90919063ffffffff16565b9350505050919050565b600061146a338484613742565b506001905092915050565b60008060006114848585613835565b8092508193505050600073ffffffffffffffffffffffffffffffffffffffff168573ffffffffffffffffffffffffffffffffffffffff16141561150d573373ffffffffffffffffffffffffffffffffffffffff166108fc829081150290604051600060405180830381858888f19350505050158015611507573d6000803e3d6000fd5b506115d1565b8473ffffffffffffffffffffffffffffffffffffffff1663a9059cbb33836040518363ffffffff1660e01b8152600401808373ffffffffffffffffffffffffffffffffffffffff1673ffffffffffffffffffffffffffffffffffffffff16815260200182815260200192505050602060405180830381600087803b15801561159457600080fd5b505af11580156115a8573d6000803e3d6000fd5b505050506040513d60208110156115be57600080fd5b8101908080519060200190929190505050505b6115db3383612f54565b6115e457600080fd5b60019250505092915050565b600080601260008073ffffffffffffffffffffffffffffffffffffffff1673ffffffffffffffffffffffffffffffffffffffff1681526020019081526020016000206001015490506000601260008073ffffffffffffffffffffffffffffffffffffffff1673ffffffffffffffffffffffffffffffffffffffff168152602001908152602001600020600001549050600061168c8584846125a1565b9050809350505050919050565b600080601060008481526020019081526020016000206000015490506000601060008581526020019081526020016000206001015490506000601260008073ffffffffffffffffffffffffffffffffffffffff1673ffffffffffffffffffffffffffffffffffffffff1681526020019081526020016000206001015490506000601260008073ffffffffffffffffffffffffffffffffffffffff1673ffffffffffffffffffffffffffffffffffffffff168152602001908152602001600020600001549050600061176b858484612f72565b90508381101561177e5760019550611783565b600095505b8595505050505050919050565b60035481565b600080600e60003373ffffffffffffffffffffffffffffffffffffffff1673ffffffffffffffffffffffffffffffffffffffff1681526020019081526020016000206001015490506000811415611855576040517f08c379a000000000000000000000000000000000000000000000000000000000815260040180806020018281038252600e8152602001807f434450206d75737420657869737400000000000000000000000000000000000081525060200191505060405180910390fd5b600083116118ae576040517f08c379a0000000000000000000000000000000000000000000000000000000008152600401808060200182810382526022815260200180613f5c6022913960400191505060405180910390fd5b612710831115611909576040517f08c379a0000000000000000000000000000000000000000000000000000000008152600401808060200182810382526021815260200180613ef16021913960400191505060405180910390fd5b600060106000838152602001908152602001600020600101549050600061271090506000611952611943878461337a90919063ffffffff16565b8461337a90919063ffffffff16565b90506000601060008681526020019081526020016000206000015490506000611996611987898661337a90919063ffffffff16565b8361337a90919063ffffffff16565b90506119a3333085613742565b611a15576040517f08c379a00000000000000000000000000000000000000000000000000000000081526004018080602001828103825260128152602001807f4d75737420617070726f7665206669727374000000000000000000000000000081525060200191505060405180910390fd5b611a20333085611c2e565b611a92576040517f08c379a00000000000000000000000000000000000000000000000000000000081526004018080602001828103825260118152602001807f6d75737420636f6c6c656374206465627400000000000000000000000000000081525060200191505060405180910390fd5b611a9b83613c35565b611b0d576040517f08c379a000000000000000000000000000000000000000000000000000000000815260040180806020018281038252600e8152602001807f4d757374206275726e206465627400000000000000000000000000000000000081525060200191505060405180910390fd5b8260106000888152602001908152602001600020600101600082825403925050819055508060106000888152602001908152602001600020600001600082825403925050819055503373ffffffffffffffffffffffffffffffffffffffff166108fc829081150290604051600060405180830381858888f19350505050158015611b9b573d6000803e3d6000fd5b507fbb34e4a8404f713f72b3aa4780f76e5cb9a5903c83d80310d8cddd5ecc03c3178642338685604051808681526020018581526020018473ffffffffffffffffffffffffffffffffffffffff1673ffffffffffffffffffffffffffffffffffffffff1681526020018381526020018281526020019550505050505060405180910390a160019650505050505050919050565b6000600760008573ffffffffffffffffffffffffffffffffffffffff1673ffffffffffffffffffffffffffffffffffffffff16815260200190815260200160002060008473ffffffffffffffffffffffffffffffffffffffff1673ffffffffffffffffffffffffffffffffffffffff16815260200190815260200160002054821115611d05576040517f08c379a0000000000000000000000000000000000000000000000000000000008152600401808060200182810382526029815260200180613f126029913960400191505060405180910390fd5b611d9482600760008773ffffffffffffffffffffffffffffffffffffffff1673ffffffffffffffffffffffffffffffffffffffff16815260200190815260200160002060008673ffffffffffffffffffffffffffffffffffffffff1673ffffffffffffffffffffffffffffffffffffffff16815260200190815260200160002054613dae90919063ffffffff16565b600760008673ffffffffffffffffffffffffffffffffffffffff1673ffffffffffffffffffffffffffffffffffffffff16815260200190815260200160002060008573ffffffffffffffffffffffffffffffffffffffff1673ffffffffffffffffffffffffffffffffffffffff16815260200190815260200160002081905550611e1f8484846134f1565b50600190509392505050565b6000611e38333084611c2e565b611eaa576040517f08c379a00000000000000000000000000000000000000000000000000000000081526004018080602001828103825260108152602001807f6d75737420636f6c6c656374206d61690000000000000000000000000000000081525060200191505060405180910390fd5b8373ffffffffffffffffffffffffffffffffffffffff166323b872dd3330866040518463ffffffff1660e01b8152600401808473ffffffffffffffffffffffffffffffffffffffff1673ffffffffffffffffffffffffffffffffffffffff1681526020018373ffffffffffffffffffffffffffffffffffffffff1673ffffffffffffffffffffffffffffffffffffffff1681526020018281526020019350505050602060405180830381600087803b158015611f6557600080fd5b505af1158015611f79573d6000803e3d6000fd5b505050506040513d6020811015611f8f57600080fd5b81019080805190602001909291905050505081601260008673ffffffffffffffffffffffffffffffffffffffff1673ffffffffffffffffffffffffffffffffffffffff1681526020019081526020016000206000018190555082601260008673ffffffffffffffffffffffffffffffffffffffff1673ffffffffffffffffffffffffffffffffffffffff168152602001908152602001600020600101819055506013849080600181540180825580915050600190039060005260206000200160009091909190916101000a81548173ffffffffffffffffffffffffffffffffffffffff021916908373ffffffffffffffffffffffffffffffffffffffff160217905550600190509392505050565b601381815481106120aa57fe5b906000526020600020016000915054906101000a900473ffffffffffffffffffffffffffffffffffffffff1681565b60025481565b60095481565b600d5481565b60115481565b60085481565b60008061211f61211086856132f490919063ffffffff16565b866132f490919063ffffffff16565b9050600061215a6121398688613dc590919063ffffffff16565b61214c8789613dc590919063ffffffff16565b6132f490919063ffffffff16565b905061216f818361337a90919063ffffffff16565b925082925050509392505050565b60008034116121f4576040517f08c379a000000000000000000000000000000000000000000000000000000000815260040180806020018281038252600e8152602001807f4d7573742067657420457468657200000000000000000000000000000000000081525060200191505060405180910390fd5b6121ff333084611c2e565b612271576040517f08c379a00000000000000000000000000000000000000000000000000000000081526004018080602001828103825260108152602001807f4d75737420636f6c6c656374204d41490000000000000000000000000000000081525060200191505060405180910390fd5b61227d60003484613de1565b60019050919050565b600f818154811061229357fe5b906000526020600020016000915054906101000a900473ffffffffffffffffffffffffffffffffffffffff1681565b600060085482101561233c576040517f08c379a00000000000000000000000000000000000000000000000000000000081526004018080602001828103825260198152602001807f4d7573742062652067726561746572207468616e20313031250000000000000081525060200191505060405180910390fd5b6000600e60003373ffffffffffffffffffffffffffffffffffffffff1673ffffffffffffffffffffffffffffffffffffffff16815260200190815260200160002060010154905060008114156123fa576040517f08c379a00000000000000000000000000000000000000000000000000000000081526004018080602001828103825260188152602001807f4d75737420626520616e206f776e657220616c7265616479000000000000000081525060200191505060405180910390fd5b6000601060008381526020019081526020016000206000015490506000612420826115f0565b9050600061244a606461243c88856132f490919063ffffffff16565b61337a90919063ffffffff16565b90506000612477601060008781526020019081526020016000206001015483613dae90919063ffffffff16565b90508060106000878152602001908152602001600020600101600082825401925050819055506124a6816133c4565b506124b23033836134f1565b612507576040517f08c379a0000000000000000000000000000000000000000000000000000000008152600401808060200182810382526023815260200180613ece6023913960400191505060405180910390fd5b7f99349e3e915f5052737c40f222795c4bd5e8ee2e41e21dcb6a8aaf7c4c5736478542338460008c604051808781526020018681526020018573ffffffffffffffffffffffffffffffffffffffff1673ffffffffffffffffffffffffffffffffffffffff168152602001848152602001838152602001828152602001965050505050505060405180910390a1600195505050505050919050565b6000806125c96125ba85856132f490919063ffffffff16565b866132f490919063ffffffff16565b905060006126046125e38688613dc590919063ffffffff16565b6125f68789613dc590919063ffffffff16565b6132f490919063ffffffff16565b9050612619818361337a90919063ffffffff16565b925082925050509392505050565b600080341161269e576040517f08c379a000000000000000000000000000000000000000000000000000000000815260040180806020018281038252601f8152602001807f4d757374206265206d6f7265207468616e203020746f206f70656e204344500081525060200191505060405180910390fd5b600854821015612716576040517f08c379a00000000000000000000000000000000000000000000000000000000081526004018080602001828103825260198152602001807f4d7573742062652067726561746572207468616e20313031250000000000000081525060200191505060405180910390fd5b612721333484611065565b5060019050919050565b60066020528060005260406000206000915090505481565b600e6020528060005260406000206000915090508060010154905081565b60008060126000600b60009054906101000a900473ffffffffffffffffffffffffffffffffffffffff1673ffffffffffffffffffffffffffffffffffffffff1673ffffffffffffffffffffffffffffffffffffffff168152602001908152602001600020600001549050600060126000600b60009054906101000a900473ffffffffffffffffffffffffffffffffffffffff1673ffffffffffffffffffffffffffffffffffffffff1673ffffffffffffffffffffffffffffffffffffffff16815260200190815260200160002060010154905060006128418584846125a1565b9050809350505050919050565b600080601260008473ffffffffffffffffffffffffffffffffffffffff1673ffffffffffffffffffffffffffffffffffffffff1681526020019081526020016000206001015490506000601260008573ffffffffffffffffffffffffffffffffffffffff1673ffffffffffffffffffffffffffffffffffffffff168152602001908152602001600020600001549050612904816128f6846004546132f490919063ffffffff16565b61337a90919063ffffffff16565b92505050919050565b60018054600181600116156101000203166002900480601f0160208091040260200160405190810160405280929190818152602001828054600181600116156101000203166002900480156129a35780601f10612978576101008083540402835291602001916129a3565b820191906000526020600020905b81548152906001019060200180831161298657829003601f168201915b505050505081565b6000803411612a22576040517f08c379a000000000000000000000000000000000000000000000000000000000815260040180806020018281038252601f8152602001807f4d757374206265206d6f7265207468616e203020746f206f70656e204344500081525060200191505060405180910390fd5b6000600e60003373ffffffffffffffffffffffffffffffffffffffff1673ffffffffffffffffffffffffffffffffffffffff16815260200190815260200160002060010154905060008111612adf576040517f08c379a00000000000000000000000000000000000000000000000000000000081526004018080602001828103825260188152602001807f4d75737420626520616e206f776e657220616c7265616479000000000000000081525060200191505060405180910390fd5b3460106000838152602001908152602001600020600001600082825401925050819055506000612b2460106000848152602001908152602001600020600001546115f0565b90506000612b646010600085815260200190815260200160002060010154612b566064856132f490919063ffffffff16565b61337a90919063ffffffff16565b90507f99349e3e915f5052737c40f222795c4bd5e8ee2e41e21dcb6a8aaf7c4c57364783423360003486604051808781526020018681526020018573ffffffffffffffffffffffffffffffffffffffff1673ffffffffffffffffffffffffffffffffffffffff168152602001848152602001838152602001828152602001965050505050505060405180910390a16001935050505090565b6000808311612c73576040517f08c379a00000000000000000000000000000000000000000000000000000000081526004018080602001828103825260168152602001807f6d7573742062652067726561746572207468616e20300000000000000000000081525060200191505060405180910390fd5b601154831115612ceb576040517f08c379a000000000000000000000000000000000000000000000000000000000815260040180806020018281038252600a8152602001807f6d7573742065786973740000000000000000000000000000000000000000000081525060200191505060405180910390fd5b60008211612d44576040517f08c379a0000000000000000000000000000000000000000000000000000000008152600401808060200182810382526022815260200180613f5c6022913960400191505060405180910390fd5b610d05821115612d9f576040517f08c379a0000000000000000000000000000000000000000000000000000000008152600401808060200182810382526021815260200180613ead6021913960400191505060405180910390fd5b612da883611699565b15612f4357600060106000858152602001908152602001600020600001549050600060106000868152602001908152602001600020600101549050600061271090506000612e11612e02878461337a90919063ffffffff16565b8561337a90919063ffffffff16565b90506000612e3a612e2b888561337a90919063ffffffff16565b8561337a90919063ffffffff16565b90506000612e47836115f0565b90506000828203905083601060008c81526020019081526020016000206000016000828254039250508190555082601060008c8152602001908152602001600020600101600082825403925050819055507f18be1fd69582441af305bfdbab6adc71a4cedcef561788b6a884795146009f858a42338c88878988604051808981526020018881526020018773ffffffffffffffffffffffffffffffffffffffff1673ffffffffffffffffffffffffffffffffffffffff1681526020018681526020018581526020018481526020018381526020018281526020019850505050505050505060405180910390a16001975050505050505050612f48565b600090505b92915050565b600a5481565b6000612f613384846134f1565b506001905092915050565b60045481565b600080612fac612f9d612f8e8787613dae90919063ffffffff16565b856132f490919063ffffffff16565b866132f490919063ffffffff16565b90506000612fe7612fc68688613dc590919063ffffffff16565b612fd98789613dc590919063ffffffff16565b6132f490919063ffffffff16565b9050612ffc818361337a90919063ffffffff16565b925082925050509392505050565b60126020528060005260406000206000915090508060000154908060010154908060030154905083565b60008373ffffffffffffffffffffffffffffffffffffffff166323b872dd3330866040518463ffffffff1660e01b8152600401808473ffffffffffffffffffffffffffffffffffffffff1673ffffffffffffffffffffffffffffffffffffffff1681526020018373ffffffffffffffffffffffffffffffffffffffff1673ffffffffffffffffffffffffffffffffffffffff1681526020018281526020019350505050602060405180830381600087803b1580156130f157600080fd5b505af1158015613105573d6000803e3d6000fd5b505050506040513d602081101561311b57600080fd5b810190808051906020019092919050505050613138333084611c2e565b6131aa576040517f08c379a00000000000000000000000000000000000000000000000000000000081526004018080602001828103825260108152602001807f4d75737420636f6c6c656374204d41490000000000000000000000000000000081525060200191505060405180910390fd5b6131b5848484613de1565b600190509392505050565b600080601260008473ffffffffffffffffffffffffffffffffffffffff1673ffffffffffffffffffffffffffffffffffffffff1681526020019081526020016000206001015490506000601260008573ffffffffffffffffffffffffffffffffffffffff1673ffffffffffffffffffffffffffffffffffffffff16815260200190815260200160002060000154905061327682613268836004546132f490919063ffffffff16565b61337a90919063ffffffff16565b92505050919050565b6007602052816000526040600020602052806000526040600020600091509150505481565b60106020528060005260406000206000915090508060000154908060010154908060020160009054906101000a900473ffffffffffffffffffffffffffffffffffffffff16905083565b600c5481565b6000808314156133075760009050613374565b600082840290508284828161331857fe5b041461336f576040517f08c379a0000000000000000000000000000000000000000000000000000000008152600401808060200182810382526021815260200180613f3b6021913960400191505060405180910390fd5b809150505b92915050565b60006133bc83836040518060400160405280601a81526020017f536166654d6174683a206469766973696f6e206279207a65726f000000000000815250613de6565b905092915050565b60008082116133d257600080fd5b6133e782600354613dc590919063ffffffff16565b60038190555061343f82600660003073ffffffffffffffffffffffffffffffffffffffff1673ffffffffffffffffffffffffffffffffffffffff16815260200190815260200160002054613dc590919063ffffffff16565b600660003073ffffffffffffffffffffffffffffffffffffffff1673ffffffffffffffffffffffffffffffffffffffff168152602001908152602001600020819055503073ffffffffffffffffffffffffffffffffffffffff16600073ffffffffffffffffffffffffffffffffffffffff167fddf252ad1be2c89b69c2b068fc378daa952ba7f163c4a11628f55a4df523b3ef846040518082815260200191505060405180910390a360019050919050565b600081600660008673ffffffffffffffffffffffffffffffffffffffff1673ffffffffffffffffffffffffffffffffffffffff1681526020019081526020016000205410156135a8576040517f08c379a00000000000000000000000000000000000000000000000000000000081526004018080602001828103825260208152602001807f53656e646572206d757374206861766520656e6f75676820746f207370656e6481525060200191505060405180910390fd5b6135fa82600660008773ffffffffffffffffffffffffffffffffffffffff1673ffffffffffffffffffffffffffffffffffffffff16815260200190815260200160002054613dae90919063ffffffff16565b600660008673ffffffffffffffffffffffffffffffffffffffff1673ffffffffffffffffffffffffffffffffffffffff1681526020019081526020016000208190555061368f82600660008673ffffffffffffffffffffffffffffffffffffffff1673ffffffffffffffffffffffffffffffffffffffff16815260200190815260200160002054613dc590919063ffffffff16565b600660008573ffffffffffffffffffffffffffffffffffffffff1673ffffffffffffffffffffffffffffffffffffffff168152602001908152602001600020819055508273ffffffffffffffffffffffffffffffffffffffff168473ffffffffffffffffffffffffffffffffffffffff167fddf252ad1be2c89b69c2b068fc378daa952ba7f163c4a11628f55a4df523b3ef846040518082815260200191505060405180910390a3600190509392505050565b600081600760008673ffffffffffffffffffffffffffffffffffffffff1673ffffffffffffffffffffffffffffffffffffffff16815260200190815260200160002060008573ffffffffffffffffffffffffffffffffffffffff1673ffffffffffffffffffffffffffffffffffffffff168152602001908152602001600020819055508273ffffffffffffffffffffffffffffffffffffffff168473ffffffffffffffffffffffffffffffffffffffff167f8c5be1e5ebec7d5bd14f71427d1e84f3dd0314c0f7b2291e5b200ac8c7c3b925846040518082815260200191505060405180910390a3600190509392505050565b6000806000601260008673ffffffffffffffffffffffffffffffffffffffff1673ffffffffffffffffffffffffffffffffffffffff16815260200190815260200160002060040160003373ffffffffffffffffffffffffffffffffffffffff1673ffffffffffffffffffffffffffffffffffffffff16815260200190815260200160002054116138c457600080fd5b6127108311156138d357600080fd5b600083116138e057600080fd5b600061271090506000601260008773ffffffffffffffffffffffffffffffffffffffff1673ffffffffffffffffffffffffffffffffffffffff16815260200190815260200160002060040160003373ffffffffffffffffffffffffffffffffffffffff1673ffffffffffffffffffffffffffffffffffffffff1681526020019081526020016000205490506000828683028161397857fe5b0490506000601260008973ffffffffffffffffffffffffffffffffffffffff1673ffffffffffffffffffffffffffffffffffffffff1681526020019081526020016000206003015490506000601260008a73ffffffffffffffffffffffffffffffffffffffff1673ffffffffffffffffffffffffffffffffffffffff1681526020019081526020016000206000015490506000601260008b73ffffffffffffffffffffffffffffffffffffffff1673ffffffffffffffffffffffffffffffffffffffff168152602001908152602001600020600101549050613a7583613a6786856132f490919063ffffffff16565b61337a90919063ffffffff16565b9750613a9c83613a8e86846132f490919063ffffffff16565b61337a90919063ffffffff16565b96506000601260008c73ffffffffffffffffffffffffffffffffffffffff1673ffffffffffffffffffffffffffffffffffffffff16815260200190815260200160002060040160003373ffffffffffffffffffffffffffffffffffffffff1673ffffffffffffffffffffffffffffffffffffffff1681526020019081526020016000208190555083601260008c73ffffffffffffffffffffffffffffffffffffffff1673ffffffffffffffffffffffffffffffffffffffff168152602001908152602001600020600301600082825403925050819055507feb755d537a0caac69ccb1ac1dc2b7397a32bb19f93bd06013c57ac0b2e5dd69c8a338a8a88604051808673ffffffffffffffffffffffffffffffffffffffff1673ffffffffffffffffffffffffffffffffffffffff1681526020018573ffffffffffffffffffffffffffffffffffffffff1673ffffffffffffffffffffffffffffffffffffffff1681526020018481526020018381526020018281526020019550505050505060405180910390a18787975097505050505050509250929050565b6000808211613c4357600080fd5b600660003073ffffffffffffffffffffffffffffffffffffffff1673ffffffffffffffffffffffffffffffffffffffff16815260200190815260200160002054821115613c8f57600080fd5b613ca482600354613dae90919063ffffffff16565b600381905550613cfc82600660003073ffffffffffffffffffffffffffffffffffffffff1673ffffffffffffffffffffffffffffffffffffffff16815260200190815260200160002054613dae90919063ffffffff16565b600660003073ffffffffffffffffffffffffffffffffffffffff1673ffffffffffffffffffffffffffffffffffffffff16815260200190815260200160002081905550600073ffffffffffffffffffffffffffffffffffffffff163073ffffffffffffffffffffffffffffffffffffffff167fddf252ad1be2c89b69c2b068fc378daa952ba7f163c4a11628f55a4df523b3ef846040518082815260200191505060405180910390a360019050919050565b600082821115613dba57fe5b818303905092915050565b600080828401905083811015613dd757fe5b8091505092915050565b505050565b60008083118290613e92576040517f08c379a00000000000000000000000000000000000000000000000000000000081526004018080602001828103825283818151815260200191508051906020019080838360005b83811015613e57578082015181840152602081019050613e3c565b50505050905090810190601f168015613e845780820380516001836020036101000a031916815260200191505b509250505060405180910390fd5b506000838581613e9e57fe5b04905080915050939250505056fe4c69717569646174696f6e206d757374206265206c657373207468616e203333254d757374207472616e73666572206d696e7420616d6f756e7420746f2073656e6465724c69717569646174696f6e206d757374206265206c657373207468616e2031306b53656e646572206d757374206861766520656e6f75676820616c6c6f77616e636520746f2073656e64536166654d6174683a206d756c7469706c69636174696f6e206f766572666c6f774c69717569646174696f6e206d7573742062652067726561746572207468616e2030a26469706673582212200942e44dc623efe949ba556569ca51366094649e8089ad2a80a9f299e3ce003e64736f6c63430006040033536166654d6174683a206d756c7469706c69636174696f6e206f766572666c6f77",
  "source": "pragma solidity 0.6.4;\n\n//ERC20 Interface nice\ninterface ERC20 {\n    function totalSupply() external view returns (uint256);\n    function balanceOf(address account) external view returns (uint256);\n    function transfer(address, uint) external returns (bool);\n    function allowance(address owner, address spender) external view returns (uint256);\n    function approve(address, uint) external returns (bool);\n    function transferFrom(address, address, uint) external returns (bool);\n    event Transfer(address indexed from, address indexed to, uint256 amount);\n    event Approval(address indexed owner, address indexed spender, uint256 amount);\n}\n//Safe mathematics\nlibrary SafeMath {\n function sub(uint256 a, uint256 b) internal pure returns (uint256) {\n  assert(b <= a);\n  return a - b;\n  }\n\n function add(uint256 a, uint256 b) internal pure returns (uint256)   {\n  uint256 c = a + b;\n  assert(c >= a);\n  return c;\n  }\n  function mul(uint256 a, uint256 b) internal pure returns (uint256) {\n      if (a == 0) {\n          return 0;\n      }\n      uint256 c = a * b;\n      require(c / a == b, \"SafeMath: multiplication overflow\");\n      return c;\n  }\n\n  function div(uint256 a, uint256 b) internal pure returns (uint256) {\n      return div(a, b, \"SafeMath: division by zero\");\n  }\n\n  function div(uint256 a, uint256 b, string memory errorMessage) internal pure returns (uint256) {\n      require(b > 0, errorMessage);\n      uint256 c = a / b;\n      return c;\n  }\n}\ncontract MAI is ERC20{\n    using SafeMath for uint256;\n    string public name = \"MAI Asset\";\n    string public symbol = \"MAI\";\n    uint256 public decimals  = 18;\n    uint256 public override totalSupply;\n    uint256 public _1 = 10**decimals;\n\n    bool private notEntered;\n\n    mapping(address => uint256) public override balanceOf;\n    mapping(address => mapping(address => uint256)) public override allowance;\n\n    \n    uint256 public minCollaterisation;\n    uint256 public defaultCollateralisation;\n    uint256 public etherPrice;\n    address exchangeUSD;\n    uint256 public mintedMAI;\n    uint256 public pooledMAI;\n\n    mapping(address => MemberData) public mapAddress_MemberData;\n    address[] public members;\n    struct MemberData {\n        address[] exchanges;\n        uint256 CDP;\n    }\n\n    mapping(uint256 => CDPData) public mapCDP_Data;\n    uint256 public countOfCDPs;\n    struct CDPData {\n        uint256 collateral;\n        uint256 debt;\n        address payable owner;\n    }\n\n    mapping(address => ExchangeData) public mapAsset_ExchangeData;\n    address[] public exchanges;\n    struct ExchangeData {\n        //bool listed;\n        uint256 balanceMAI;\n        uint256 balanceAsset;\n        address[] stakers;\n        uint256 poolUnits;\n        mapping(address => uint256) stakerUnits;\n    }\n\n    // Events\n    event Transfer (address indexed from, address indexed to, uint256 amount);\n    event Approval ( address indexed owner, address indexed spender, uint256 amount);\n\n    event NewCDP(uint256 CDP, uint256 time, address owner, uint256 debtIssued, uint256 collateralHeld, uint256 collateralisation);\n    event UpdateCDP(uint256 CDP, uint256 time, address owner, uint256 debtAdded, uint256 collateralAdded, uint256 collateralisation);\n    event CloseCDP(uint256 CDP, uint256 time, address owner, uint256 debtPaid, uint256 etherReturned);\n    event LiquidateCDP(uint256 CDP, uint256 time, address liquidator, uint256 liquidation, uint256 etherSold, uint256 maiBought, uint256 debtDeleted, uint256 feeClaimed);\n    event AddLiquidity(address asset, address liquidityProvider, uint256 amountMAI, uint256 amountAsset, uint256 unitsIssued);\n    event RemoveLiquidity(address asset, address liquidityProvider, uint256 amountMAI, uint256 amountAsset, uint256 unitsClaimed);\n\n    event Testing1 (uint256 val1);\n    event Testing2 (uint256 val1, uint256 val2);\n    event Testing3 (uint256 val1, uint256 val2, uint256 val3);\n\n    function transfer(address to, uint256 amount) public override  returns (bool success) {\n        _transfer(msg.sender, to, amount);\n        return true;\n    }\n    function approve(address spender, uint256 amount) public override  returns (bool success) {\n        _approve(msg.sender, spender, amount);\n        return true;\n    }\n    function _approve(address _approver, address _spender, uint256 _amount) internal returns (bool success){\n        allowance[_approver][_spender] = _amount;\n        emit Approval(_approver, _spender, _amount);\n        return true;\n    }\n    //Transfer function\n    function _transfer(address _from, address _to, uint256 _amount) internal returns (bool success) {\n        require(balanceOf[_from] >= _amount,'Sender must have enough to spend');\n        balanceOf[_from] = balanceOf[_from].sub(_amount);\n        balanceOf[_to] = balanceOf[_to].add(_amount);\n        emit Transfer(_from, _to, _amount);\n        return true;\n    }\n\n    //Delegate a Transfer\n    function transferFrom(address from, address to, uint256 amount) public override returns (bool success) {\n        require(amount <= allowance[from][to], 'Sender must have enough allowance to send');\n        allowance[from][to] = allowance[from][to].sub(amount);\n        _transfer(from, to, amount);\n        return true;\n    }\n\n    function _mint(uint256 _amount) internal returns (bool success){\n        require(_amount > 0);\n        totalSupply = totalSupply.add(_amount);\n        balanceOf[address(this)] = balanceOf[address(this)].add(_amount);\n        emit Transfer(address(0), address(this), _amount);\n        return true;\n    }\n\n    function _burn(uint256 _amount) internal returns (bool success){\n        require (_amount > 0); require (_amount <= balanceOf[address(this)]);\n        totalSupply = totalSupply.sub(_amount);\n        balanceOf[address(this)] = balanceOf[address(this)].sub(_amount);\n        emit Transfer(address(this), address(0), _amount);\n        return true;\n    }\n\n    constructor () public payable {\n        notEntered = true;\n        defaultCollateralisation = 150;\n        minCollaterisation = 101;\n       // exchangeUSD = assetUSD;\n\n        // Construct with 4 Eth \n        // 2 Eth @ hardcoded price -> mint 600 MAI in CDP0\n        // 1 Eth + 200 MAI in address(0) pool\n        // 400 MAI back to sender\n       \n        uint256 genesisPrice = 200;\n        uint256 purchasingPower = (msg.value/4) * genesisPrice; \n         _mint(purchasingPower*3);\n        mapAsset_ExchangeData[address(0)].balanceAsset = msg.value/4;  \n        mapAsset_ExchangeData[address(0)].balanceMAI = purchasingPower;\n        uint256 mintAmount = (purchasingPower.mul(100)).div(defaultCollateralisation);\n        uint256 CDP = 0; countOfCDPs = 0;\n        mapAddress_MemberData[address(0)].CDP = CDP;\n        mapCDP_Data[CDP].collateral = (msg.value * 2)/4;\n        mapCDP_Data[CDP].debt = mintAmount;\n        mapCDP_Data[CDP].owner = address(0);\n\n        //mapAsset_ExchangeData[address(0)].listed = true;\n        exchanges.push(address(0));\n\n        _transfer(address(this), msg.sender, purchasingPower);\n        //emit NewCDP(CDP, now, msg.sender, mintAmount, msg.value, defaultCollateralisation);\n      \n    }\n\n    function addExchange(address asset, uint256 amountAsset, uint256 amountMAI) public returns (bool success){\n        require(MAI.transferFrom(msg.sender, address(this), amountMAI), 'must collect mai');\n        ERC20(asset).transferFrom(msg.sender, address(this), amountAsset);\n\n        // USD pool\n        mapAsset_ExchangeData[asset].balanceMAI = amountMAI;\n        mapAsset_ExchangeData[asset].balanceAsset = amountAsset;\n        //mapAsset_ExchangeData[asset].listed = true;\n        exchanges.push(asset);\n        return true;\n    }\n\n    receive() external payable {\n      require (msg.value > 0, 'Must be more than 0 to open CDP');\n      _manageCDP(msg.sender, msg.value, defaultCollateralisation);\n    }\n\n    function openCDP(uint256 collateralisation) public payable returns (bool success) {\n      require (msg.value > 0, 'Must be more than 0 to open CDP');\n      require (collateralisation >= minCollaterisation, \"Must be greater than 101%\");\n      _manageCDP(msg.sender, msg.value, collateralisation);\n      return true;\n    }\n\n    function addCollateralToCDP() public payable returns (bool success) {\n        require (msg.value > 0, 'Must be more than 0 to open CDP');\n        uint256 CDP = mapAddress_MemberData[msg.sender].CDP;\n        require (CDP > 0, \"Must be an owner already\");\n        mapCDP_Data[CDP].collateral += msg.value;\n        uint256 purchasingPower = getEtherPPinMAI(mapCDP_Data[CDP].collateral);//how valuable Ether is in MAI\n        uint256 collateralisation = ((purchasingPower).mul(100)).div(mapCDP_Data[CDP].debt);\n        emit UpdateCDP(CDP, now, msg.sender, 0, msg.value, collateralisation);\n        return true;\n    }\n\n    function remintMAIFromCDP(uint256 collateralisation) public payable returns (bool success) {\n        require (collateralisation >= minCollaterisation, \"Must be greater than 101%\");\n        uint256 CDP = mapAddress_MemberData[msg.sender].CDP;\n        require (CDP != 0, \"Must be an owner already\");\n        uint256 collateral = mapCDP_Data[CDP].collateral;\n        uint256 purchasingPower = getEtherPPinMAI(collateral);//how valuable Ether is in MAI\n        uint256 maxMintAmount = (purchasingPower.mul(collateralisation)).div(100);\n        uint256 additionalMintAmount = maxMintAmount.sub(mapCDP_Data[CDP].debt);\n        mapCDP_Data[CDP].debt += additionalMintAmount;\n        _mint(additionalMintAmount);\n        require (_transfer(address(this), msg.sender, additionalMintAmount), 'Must transfer mint amount to sender');\n        emit UpdateCDP(CDP, now, msg.sender, additionalMintAmount, 0, collateralisation);\n        return true;\n    }\n\n    function _manageCDP(address payable _owner, uint256 _value, uint256 _collateralisation) internal returns (bool success){\n      uint256 purchasingPower = getEtherPPinMAI(_value);//how valuable Ether is in USD\n      uint256 mintAmount = (purchasingPower.mul(100)).div(_collateralisation);\n      //uint256 mintAmount = 100000000000;\n      uint256 CDP = mapAddress_MemberData[_owner].CDP;\n      if (CDP != 0) {\n          mapCDP_Data[CDP].collateral += _value;\n          mapCDP_Data[CDP].debt += mintAmount;\n      } else {\n          countOfCDPs += 1;\n          CDP = countOfCDPs;\n          mapAddress_MemberData[_owner].CDP = CDP;\n          mapCDP_Data[CDP].collateral = _value;\n          mapCDP_Data[CDP].debt = mintAmount;\n          mapCDP_Data[CDP].owner = _owner;\n      }\n      _mint(mintAmount);\n      require (_transfer(address(this), _owner, mintAmount), 'Must transfer mint amount to sender');\n      emit NewCDP(CDP, now, _owner, mintAmount, _value, _collateralisation);\n      return true;\n    }\n\n    function closeCDP(uint256 _liquidation) public returns (bool success){\n      uint256 CDP = mapAddress_MemberData[msg.sender].CDP;\n      require(CDP != 0, 'CDP must exist'); //require CDP exists\n      require(_liquidation > 0, 'Liquidation must be greater than 0'); //require liquidation to be greater than 0\n      require(_liquidation <= 10000, 'Liquidation must be less than 10k');\n      uint256 debt = mapCDP_Data[CDP].debt;\n      uint256 basisPoints = 10000;\n      uint256 closeAmount = debt.div(basisPoints.div(_liquidation));\n      uint256 collateral = mapCDP_Data[CDP].collateral;\n      uint256 returnAmount = collateral.div(basisPoints.div(_liquidation));\n      require(MAI._approve(msg.sender, address(this), closeAmount), 'Must approve first');\n      require(MAI.transferFrom(msg.sender, address(this), closeAmount), 'must collect debt');\n      require(_burn(closeAmount), 'Must burn debt');\n      mapCDP_Data[CDP].debt -= closeAmount;\n      mapCDP_Data[CDP].collateral -= returnAmount;\n      msg.sender.transfer(returnAmount);\n      emit CloseCDP(CDP, now, msg.sender, closeAmount, returnAmount);\n      return true;\n    }\n\n    function liquidateCDP(uint256 CDP, uint256 liquidation) public returns (bool success){\n        require(CDP > 0, \"must be greater than 0\");\n        require(CDP <= countOfCDPs, \"must exist\");\n        require(liquidation > 0, 'Liquidation must be greater than 0'); //require liquidation to be greater than 0\n        require(liquidation <= 3333, 'Liquidation must be less than 33%');\n        if (checkLiquidationPoint(CDP)){\n            uint256 collateral = mapCDP_Data[CDP].collateral;\n            uint256 debt = mapCDP_Data[CDP].debt;\n            uint256 basisPoints = 10000;\n            uint256 liquidatedCollateral = collateral.div(basisPoints.div(liquidation));\n            uint256 debtDeleted = debt.div(basisPoints.div(liquidation));\n            //TODO actually sell it\n            uint256 maiBought = getEtherPPinMAI(liquidatedCollateral);\n            uint256 fee = maiBought - debtDeleted;\n            mapCDP_Data[CDP].collateral -= liquidatedCollateral;\n            mapCDP_Data[CDP].debt -= debtDeleted;\n            emit LiquidateCDP(CDP, now, msg.sender, liquidation, liquidatedCollateral, maiBought, debtDeleted, fee);\n            //_burn(debtDeleted);\n            //require(_transfer(address(this), address(msg.sender), fee), \"must transfer fee\");\n            return true;\n        }   else {\n            return false;\n        }\n    }\n\n    //==================================================================================//\n    // Liquidity functions\n\n    function addLiquidityToEtherPool (uint256 amountMAI) public payable returns (bool success) {\n        require(msg.value > 0, \"Must get Ether\");\n        require(transferFrom(msg.sender, address(this), amountMAI), \"Must collect MAI\");\n        _addLiquidity(address(0), msg.value, amountMAI);\n        return true;\n    }\n\n    function addLiquidityToAssetPool (address asset, uint256 amountAsset, uint256 amountMAI) public returns (bool success) {\n        ERC20(asset).transferFrom(msg.sender, address(this), amountAsset);  \n        require(transferFrom(msg.sender, address(this), amountMAI), \"Must collect MAI\");\n        _addLiquidity(asset, amountAsset, amountMAI);\n        return true;\n    }\n\n    function _addLiquidity(address asset, uint256 amountAsset, uint256 amountMAI) internal {\n        // if (mapAsset_ExchangeData[asset] == 0) {                                                         \n        //     exchanges.push(asset);                                                // Add new exchange\n        //     //mapAsset_ExchangeData[asset].listed = true;\n        //     mapAsset_ExchangeData[asset].balanceMAI = amountMAI;\n        //     mapAsset_ExchangeData[asset].balanceAsset = amountAsset;\n        // } else {\n        //     mapAsset_ExchangeData[asset].balanceMAI += amountMAI;\n        //     mapAsset_ExchangeData[asset].balanceAsset += amountAsset;\n        // }\n        // if (mapAsset_ExchangeData[asset].stakerUnits[msg.sender] == 0) {\n        //     mapAsset_ExchangeData[asset].stakers.push(msg.sender);\n        //     mapAddress_MemberData[msg.sender].exchanges.push(asset);\n        //     members.push(msg.sender);\n        // }\n        // uint256 M = mapAsset_ExchangeData[asset].balanceMAI;\n        // uint256 A = mapAsset_ExchangeData[asset].balanceAsset;\n        // // ((M + A) * (m * A + M * a))/(4 * M * A)\n        // uint256 numerator1 = M.add(A);\n        // uint256 numerator2 = amountMAI.mul(A);\n        // uint256 numerator3 = M.mul(amountAsset);\n        // uint256 numerator = numerator1.mul((numerator2.add(numerator3)));\n        // uint256 denominator = 4 * (M.mul(A));\n        // uint256 units = numerator.div(denominator);\n        // mapAsset_ExchangeData[asset].poolUnits += units;\n        // mapAsset_ExchangeData[asset].stakerUnits[msg.sender] += units;\n        // emit AddLiquidity(asset, msg.sender, amountMAI, amountAsset, units);\n    }\n\n    // function removeLiquidityFromEtherPool() public returns (bool success) {\n    //     require(removeLiquidityPool(address(0)));\n    //     return true;\n    // }\n\n    function removeLiquidityPool(address asset, uint256 bp) public returns (bool success) {\n        uint256 _outputMAI; uint256 _outputAsset;\n        (_outputMAI, _outputAsset) = _removeLiquidity(asset, bp);\n        if(asset == address(0)){\n            msg.sender.transfer(_outputAsset);\n        } else {\n            ERC20(asset).transfer(msg.sender, _outputAsset);\n        }\n        require (transfer(msg.sender, _outputMAI));\n        return true;\n    }\n\n\n\n    function _removeLiquidity(address _asset, uint256 _bp) internal returns (uint256 _outputMAI, uint256 _outputAsset) {\n        require(mapAsset_ExchangeData[_asset].stakerUnits[msg.sender] > 0);\n        require(_bp <= 10000); require(_bp > 0);\n        uint256 _basisPoints = 10000;\n        uint256 _stakerUnits = mapAsset_ExchangeData[_asset].stakerUnits[msg.sender];\n        uint256 _units = (_stakerUnits * _bp)/_basisPoints;\n        uint256 _total = mapAsset_ExchangeData[_asset].poolUnits;\n        uint256 _balanceMAI = mapAsset_ExchangeData[_asset].balanceMAI;\n        uint256 _balanceAsset = mapAsset_ExchangeData[_asset].balanceAsset;\n        _outputMAI = (_balanceMAI.mul(_units)).div(_total);\n        _outputAsset = (_balanceAsset.mul(_units)).div(_total);\n        mapAsset_ExchangeData[_asset].stakerUnits[msg.sender] = 0;\n        mapAsset_ExchangeData[_asset].poolUnits -= _units;\n        emit RemoveLiquidity(_asset, msg.sender, _outputMAI, _outputAsset, _units);\n        return(_outputMAI, _outputAsset);\n    }\n\n    //==================================================================================//\n    // Pricing functions\n\n   function getValueInMAI(address asset) public view returns (uint256 price){\n       uint256 balAsset = mapAsset_ExchangeData[asset].balanceAsset;\n       uint256 balMAI = mapAsset_ExchangeData[asset].balanceMAI;\n       return (_1.mul(balMAI)).div(balAsset);\n   }\n\n    function getValueInAsset(address asset) public view returns (uint256 price){\n       uint256 balAsset = mapAsset_ExchangeData[asset].balanceAsset;\n       uint256 balMAI = mapAsset_ExchangeData[asset].balanceMAI;\n       return (_1.mul(balAsset)).div(balMAI);\n   }\n\n   function getEtherPriceInUSD(uint256 amount) public view returns (uint256 amountBought){\n       uint256 etherPriceInMAI = getValueInMAI(address(0));\n       uint256 maiPriceInUSD = getValueInAsset(exchangeUSD);\n       uint256 ethPriceInUSD = maiPriceInUSD.mul(etherPriceInMAI).div(_1);//\n        //emit Testing3(etherPriceInMAI, maiPriceInUSD, ethPriceInUSD);\n       return (amount.mul(ethPriceInUSD)).div(_1);\n   }\n\n   function getEtherPPinMAI(uint256 amount) public view returns (uint256 amountBought){\n        uint256 etherBal = mapAsset_ExchangeData[address(0)].balanceAsset;\n        uint256 balMAI = mapAsset_ExchangeData[address(0)].balanceMAI;\n        uint256 outputMAI = getCLPSwap(amount, etherBal, balMAI);\n       // uint256 outputUSD = getMAIPPInUSD(outputMAI);\n        return outputMAI;\n   }\n\n      function getMAIPPInUSD(uint256 amount) public view returns (uint256 amountBought){\n        uint256 balMAI = mapAsset_ExchangeData[exchangeUSD].balanceMAI;\n        uint256 balanceUSD = mapAsset_ExchangeData[exchangeUSD].balanceAsset;\n\n        uint256 outputUSD = getCLPSwap(amount, balMAI, balanceUSD);\n        return outputUSD;\n   }\n\n   function checkLiquidationPoint(uint256 CDP) public view returns (bool canLiquidate){\n        uint256 collateral = mapCDP_Data[CDP].collateral;\n        uint256 debt = mapCDP_Data[CDP].debt;\n        uint256 etherBal = mapAsset_ExchangeData[address(0)].balanceAsset;\n        uint256 balMAI = mapAsset_ExchangeData[address(0)].balanceMAI;\n        uint256 outputMAI = getCLPLiquidation(collateral, etherBal, balMAI);\n        if(outputMAI < debt) {\n            canLiquidate = true;\n        } else {\n            canLiquidate = false;\n        }\n        return canLiquidate;\n   }\n\n   //##############################################\n\n    function getCLPSwap(uint256 x, uint256 X, uint256 Y) public pure returns (uint256 y){\n        // y = (x * Y * X)/(x + X)^2\n        uint256 numerator = x.mul(Y.mul(X));\n        uint256 denominator = (x.add(X)).mul(x.add(X));\n        y = numerator.div(denominator);\n        return y;\n    }\n\n    function getCLPFee(uint256 x, uint256 X, uint256 Y) public pure returns (uint256 y){\n        // y = (x * Y * x) / (x + X)^2\n        uint256 numerator = x.mul(Y.mul(x));\n        uint256 denominator = (x.add(X)).mul(x.add(X));\n        y = numerator.div(denominator);\n        return y;\n    }\n\n    function getCLPLiquidation(uint256 x, uint256 X, uint256 Y) public pure returns (uint256 y){\n        // y = (x * Y * (X - x))/(x + X)^2\n        uint256 numerator = (x.mul(Y.mul(X.sub(x))));\n        uint256 denominator = (x.add(X)).mul(x.add(X));\n        y = numerator.div(denominator);\n        return y;\n    }\n}\n",
  "sourcePath": "/Users/guzziplus/ThesisPro/mai-contracts/contracts/Mai.sol",
  "compiler": {
    "name": "solc",
    "version": "0.6.4+commit.1dca32f3.Emscripten.clang"
  },
  "schemaVersion": "3.1.0",
  "updatedAt": "2020-05-08T15:25:06.913Z",
  "devdoc": {
    "methods": {}
  },
  "userdoc": {
    "methods": {}
  }
}